{
  "transactions": [
    {
      "hash": "0xb648ce7263ba76f023de1f757756b263aad79206268d37adc8824934bfc09cd4",
      "transactionType": "CALL",
      "contractName": null,
      "contractAddress": "0x4432fce60bbc8db0a34f722c7e5f89fb7f74a944",
      "function": "createBet(address[],string,uint256,address,address,uint256,bool)",
      "arguments": [
        "[0xa433f323541CF82f97395076B5F83a7A06F1646c, 0xa433f323541CF82f97395076B5F83a7A06F1646c]",
        "testing",
        "172800",
        "0xeb3d24fc850ab358616e29C7B89AB630629E1a37",
        "0xaf6264B2cc418d17F1067ac8aC8687aae979D5e5",
        "5000000000000000000000",
        "false"
      ],
      "transaction": {
        "from": "0x509536fb08b977af9ff7726692cc449885f7f93b",
        "to": "0x4432fce60bbc8db0a34f722c7e5f89fb7f74a944",
        "gas": "0x5f6d7",
        "value": "0x0",
        "input": "0x34a4e2c200000000000000000000000000000000000000000000000000000000000000e00000000000000000000000000000000000000000000000000000000000000140000000000000000000000000000000000000000000000000000000000002a300000000000000000000000000eb3d24fc850ab358616e29c7b89ab630629e1a37000000000000000000000000af6264b2cc418d17f1067ac8ac8687aae979d5e500000000000000000000000000000000000000000000010f0cf064dd5920000000000000000000000000000000000000000000000000000000000000000000000000000000000000000000000000000000000000000000000000000000000002000000000000000000000000a433f323541cf82f97395076b5f83a7a06f1646c000000000000000000000000a433f323541cf82f97395076b5f83a7a06f1646c000000000000000000000000000000000000000000000000000000000000000774657374696e6700000000000000000000000000000000000000000000000000",
        "nonce": "0x1b",
        "chainId": "0x14a34"
      },
      "additionalContracts": [],
      "isFixedGasLimit": false
    },
    {
      "hash": "0x30b414d22317bc5392016bf64e3a392b79fbc087415fbc2e003c94224a209d18",
      "transactionType": "CALL",
      "contractName": null,
      "contractAddress": "0x4432fce60bbc8db0a34f722c7e5f89fb7f74a944",
      "function": "createBet(address[],string,uint256,address,address,uint256,bool)",
      "arguments": [
        "[0xAF9f7bAAd97940770E999B3E83E27161Ff764438, 0xc75F11Ab67Db20669fDF9263D0174De3d174a19c]",
        "testing",
        "172800",
        "0xeb3d24fc850ab358616e29C7B89AB630629E1a37",
        "0xaf6264B2cc418d17F1067ac8aC8687aae979D5e5",
        "5000000000000000000000",
        "false"
      ],
      "transaction": {
        "from": "0x509536fb08b977af9ff7726692cc449885f7f93b",
        "to": "0x4432fce60bbc8db0a34f722c7e5f89fb7f74a944",
        "gas": "0x66d00",
        "value": "0x0",
        "input": "0x34a4e2c200000000000000000000000000000000000000000000000000000000000000e00000000000000000000000000000000000000000000000000000000000000140000000000000000000000000000000000000000000000000000000000002a300000000000000000000000000eb3d24fc850ab358616e29c7b89ab630629e1a37000000000000000000000000af6264b2cc418d17f1067ac8ac8687aae979d5e500000000000000000000000000000000000000000000010f0cf064dd5920000000000000000000000000000000000000000000000000000000000000000000000000000000000000000000000000000000000000000000000000000000000002000000000000000000000000af9f7baad97940770e999b3e83e27161ff764438000000000000000000000000c75f11ab67db20669fdf9263d0174de3d174a19c000000000000000000000000000000000000000000000000000000000000000774657374696e6700000000000000000000000000000000000000000000000000",
        "nonce": "0x1c",
        "chainId": "0x14a34"
      },
      "additionalContracts": [],
      "isFixedGasLimit": false
    },
    {
      "hash": "0x07c5f34bb7e20dc2cd4ae3c096b5a3def7718974330072cca68e988d606d0d9f",
      "transactionType": "CALL",
      "contractName": null,
      "contractAddress": "0x4432fce60bbc8db0a34f722c7e5f89fb7f74a944",
      "function": "createBet(address[],string,uint256,address,address,uint256,bool)",
      "arguments": [
        "[0xE33168596Ce656f754d4b02f9619EE0020Ed59c1, 0xf93296445F28F803A77ef9c961740C3e6C611954]",
        "testing",
        "172800",
        "0xeb3d24fc850ab358616e29C7B89AB630629E1a37",
        "0xaf6264B2cc418d17F1067ac8aC8687aae979D5e5",
        "5000000000000000000000",
        "false"
      ],
      "transaction": {
        "from": "0x509536fb08b977af9ff7726692cc449885f7f93b",
        "to": "0x4432fce60bbc8db0a34f722c7e5f89fb7f74a944",
        "gas": "0x66cef",
        "value": "0x0",
        "input": "0x34a4e2c200000000000000000000000000000000000000000000000000000000000000e00000000000000000000000000000000000000000000000000000000000000140000000000000000000000000000000000000000000000000000000000002a300000000000000000000000000eb3d24fc850ab358616e29c7b89ab630629e1a37000000000000000000000000af6264b2cc418d17f1067ac8ac8687aae979d5e500000000000000000000000000000000000000000000010f0cf064dd5920000000000000000000000000000000000000000000000000000000000000000000000000000000000000000000000000000000000000000000000000000000000002000000000000000000000000e33168596ce656f754d4b02f9619ee0020ed59c1000000000000000000000000f93296445f28f803a77ef9c961740c3e6c611954000000000000000000000000000000000000000000000000000000000000000774657374696e6700000000000000000000000000000000000000000000000000",
        "nonce": "0x1d",
        "chainId": "0x14a34"
      },
      "additionalContracts": [],
      "isFixedGasLimit": false
    },
    {
      "hash": "0x12a1136db8d90ccfe1d3777868f43ca12e50e8f4c528bfbdb269fc5bcdee5084",
      "transactionType": "CALL",
      "contractName": null,
      "contractAddress": "0x4432fce60bbc8db0a34f722c7e5f89fb7f74a944",
      "function": "createBet(address[],string,uint256,address,address,uint256,bool)",
      "arguments": [
        "[0xd56F9A475329D484586a3B2e6C06400FA67af19d, 0xa36dbA29d4138ff3Cf2B64AF01Dd3dBdC2281aA4]",
        "testing",
        "172800",
        "0xeb3d24fc850ab358616e29C7B89AB630629E1a37",
        "0xaf6264B2cc418d17F1067ac8aC8687aae979D5e5",
        "5000000000000000000000",
        "false"
      ],
      "transaction": {
        "from": "0x509536fb08b977af9ff7726692cc449885f7f93b",
        "to": "0x4432fce60bbc8db0a34f722c7e5f89fb7f74a944",
        "gas": "0x66d00",
        "value": "0x0",
        "input": "0x34a4e2c200000000000000000000000000000000000000000000000000000000000000e00000000000000000000000000000000000000000000000000000000000000140000000000000000000000000000000000000000000000000000000000002a300000000000000000000000000eb3d24fc850ab358616e29c7b89ab630629e1a37000000000000000000000000af6264b2cc418d17f1067ac8ac8687aae979d5e500000000000000000000000000000000000000000000010f0cf064dd5920000000000000000000000000000000000000000000000000000000000000000000000000000000000000000000000000000000000000000000000000000000000002000000000000000000000000d56f9a475329d484586a3b2e6c06400fa67af19d000000000000000000000000a36dba29d4138ff3cf2b64af01dd3dbdc2281aa4000000000000000000000000000000000000000000000000000000000000000774657374696e6700000000000000000000000000000000000000000000000000",
        "nonce": "0x1e",
        "chainId": "0x14a34"
      },
      "additionalContracts": [],
      "isFixedGasLimit": false
    },
    {
      "hash": "0xd5246415a2c6b21671ca47b911f4423f091214a0df83ae0ba7c45661fff76919",
      "transactionType": "CALL",
      "contractName": null,
      "contractAddress": "0x4432fce60bbc8db0a34f722c7e5f89fb7f74a944",
      "function": "createBet(address[],string,uint256,address,address,uint256,bool)",
      "arguments": [
        "[0xEFA84CFF891990CE59da2760a92dae59c886A7D6, 0x5806d57d593Bf9F0f976be10c301A1c373cd6FF9]",
        "testing",
        "172800",
        "0xeb3d24fc850ab358616e29C7B89AB630629E1a37",
        "0xaf6264B2cc418d17F1067ac8aC8687aae979D5e5",
        "5000000000000000000000",
        "false"
      ],
      "transaction": {
        "from": "0x509536fb08b977af9ff7726692cc449885f7f93b",
        "to": "0x4432fce60bbc8db0a34f722c7e5f89fb7f74a944",
        "gas": "0x66d00",
        "value": "0x0",
        "input": "0x34a4e2c200000000000000000000000000000000000000000000000000000000000000e00000000000000000000000000000000000000000000000000000000000000140000000000000000000000000000000000000000000000000000000000002a300000000000000000000000000eb3d24fc850ab358616e29c7b89ab630629e1a37000000000000000000000000af6264b2cc418d17f1067ac8ac8687aae979d5e500000000000000000000000000000000000000000000010f0cf064dd5920000000000000000000000000000000000000000000000000000000000000000000000000000000000000000000000000000000000000000000000000000000000002000000000000000000000000efa84cff891990ce59da2760a92dae59c886a7d60000000000000000000000005806d57d593bf9f0f976be10c301a1c373cd6ff9000000000000000000000000000000000000000000000000000000000000000774657374696e6700000000000000000000000000000000000000000000000000",
        "nonce": "0x1f",
        "chainId": "0x14a34"
      },
      "additionalContracts": [],
      "isFixedGasLimit": false
    },
    {
      "hash": "0x677bb94c05670470284043d54f54fce37f980bc8b45d517ebf15d600d8ef9c0b",
      "transactionType": "CALL",
      "contractName": null,
      "contractAddress": "0x4432fce60bbc8db0a34f722c7e5f89fb7f74a944",
      "function": "createBet(address[],string,uint256,address,address,uint256,bool)",
      "arguments": [
        "[0xe96c133eF10870893153a9CFa8f6C51e8adbB2Aa, 0x8f137bE820E65927BA452F17Acc850c55E5bE5Fd]",
        "testing",
        "172800",
        "0xeb3d24fc850ab358616e29C7B89AB630629E1a37",
        "0xaf6264B2cc418d17F1067ac8aC8687aae979D5e5",
        "5000000000000000000000",
        "false"
      ],
      "transaction": {
        "from": "0x509536fb08b977af9ff7726692cc449885f7f93b",
        "to": "0x4432fce60bbc8db0a34f722c7e5f89fb7f74a944",
        "gas": "0x66d00",
        "value": "0x0",
        "input": "0x34a4e2c200000000000000000000000000000000000000000000000000000000000000e00000000000000000000000000000000000000000000000000000000000000140000000000000000000000000000000000000000000000000000000000002a300000000000000000000000000eb3d24fc850ab358616e29c7b89ab630629e1a37000000000000000000000000af6264b2cc418d17f1067ac8ac8687aae979d5e500000000000000000000000000000000000000000000010f0cf064dd5920000000000000000000000000000000000000000000000000000000000000000000000000000000000000000000000000000000000000000000000000000000000002000000000000000000000000e96c133ef10870893153a9cfa8f6c51e8adbb2aa0000000000000000000000008f137be820e65927ba452f17acc850c55e5be5fd000000000000000000000000000000000000000000000000000000000000000774657374696e6700000000000000000000000000000000000000000000000000",
        "nonce": "0x20",
        "chainId": "0x14a34"
      },
      "additionalContracts": [],
      "isFixedGasLimit": false
    },
    {
      "hash": "0x2b91b68108a5f71def405d913597bc510ed5474673af6b7b0264a0404066b055",
      "transactionType": "CALL",
      "contractName": null,
      "contractAddress": "0x4432fce60bbc8db0a34f722c7e5f89fb7f74a944",
      "function": "createBet(address[],string,uint256,address,address,uint256,bool)",
      "arguments": [
        "[0x2f51BaED7952dBf46e8B0Dc8ee9dB7753c10D630, 0x697856Bc95FB86f5f09f38e2aaf2f911F5123836]",
        "testing",
        "172800",
        "0xeb3d24fc850ab358616e29C7B89AB630629E1a37",
        "0xaf6264B2cc418d17F1067ac8aC8687aae979D5e5",
        "5000000000000000000000",
        "false"
      ],
      "transaction": {
        "from": "0x509536fb08b977af9ff7726692cc449885f7f93b",
        "to": "0x4432fce60bbc8db0a34f722c7e5f89fb7f74a944",
        "gas": "0x66d00",
        "value": "0x0",
        "input": "0x34a4e2c200000000000000000000000000000000000000000000000000000000000000e00000000000000000000000000000000000000000000000000000000000000140000000000000000000000000000000000000000000000000000000000002a300000000000000000000000000eb3d24fc850ab358616e29c7b89ab630629e1a37000000000000000000000000af6264b2cc418d17f1067ac8ac8687aae979d5e500000000000000000000000000000000000000000000010f0cf064dd59200000000000000000000000000000000000000000000000000000000000000000000000000000000000000000000000000000000000000000000000000000000000020000000000000000000000002f51baed7952dbf46e8b0dc8ee9db7753c10d630000000000000000000000000697856bc95fb86f5f09f38e2aaf2f911f5123836000000000000000000000000000000000000000000000000000000000000000774657374696e6700000000000000000000000000000000000000000000000000",
        "nonce": "0x21",
        "chainId": "0x14a34"
      },
      "additionalContracts": [],
      "isFixedGasLimit": false
    },
    {
      "hash": "0x4b079bde06c63dc2dc6d795432b6b50dff88ab0790aab9f7aeeae75ce58045d3",
      "transactionType": "CALL",
      "contractName": null,
      "contractAddress": "0x4432fce60bbc8db0a34f722c7e5f89fb7f74a944",
      "function": "createBet(address[],string,uint256,address,address,uint256,bool)",
      "arguments": [
        "[0xf3d083fd6c194D99AB6586e9108c2ae140bB116e, 0x869a9F56eA29eC33597e66cB736C5c614Bc74562]",
        "testing",
        "172800",
        "0xeb3d24fc850ab358616e29C7B89AB630629E1a37",
        "0xaf6264B2cc418d17F1067ac8aC8687aae979D5e5",
        "5000000000000000000000",
        "false"
      ],
      "transaction": {
        "from": "0x509536fb08b977af9ff7726692cc449885f7f93b",
        "to": "0x4432fce60bbc8db0a34f722c7e5f89fb7f74a944",
        "gas": "0x66d00",
        "value": "0x0",
        "input": "0x34a4e2c200000000000000000000000000000000000000000000000000000000000000e00000000000000000000000000000000000000000000000000000000000000140000000000000000000000000000000000000000000000000000000000002a300000000000000000000000000eb3d24fc850ab358616e29c7b89ab630629e1a37000000000000000000000000af6264b2cc418d17f1067ac8ac8687aae979d5e500000000000000000000000000000000000000000000010f0cf064dd5920000000000000000000000000000000000000000000000000000000000000000000000000000000000000000000000000000000000000000000000000000000000002000000000000000000000000f3d083fd6c194d99ab6586e9108c2ae140bb116e000000000000000000000000869a9f56ea29ec33597e66cb736c5c614bc74562000000000000000000000000000000000000000000000000000000000000000774657374696e6700000000000000000000000000000000000000000000000000",
        "nonce": "0x22",
        "chainId": "0x14a34"
      },
      "additionalContracts": [],
      "isFixedGasLimit": false
    },
    {
      "hash": "0x666b77332a1b2e4c52a447a55897734361af7872e08e2a87b7c34eff1c642c42",
      "transactionType": "CALL",
      "contractName": null,
      "contractAddress": "0x4432fce60bbc8db0a34f722c7e5f89fb7f74a944",
      "function": "createBet(address[],string,uint256,address,address,uint256,bool)",
      "arguments": [
        "[0x0B15c0706FeAeE3B97Be312aAEb6E5bF1d8eD2F2, 0x60F4f4eCeAbe4F1DEE2AFB93532D95e1E3404526]",
        "testing",
        "172800",
        "0xeb3d24fc850ab358616e29C7B89AB630629E1a37",
        "0xaf6264B2cc418d17F1067ac8aC8687aae979D5e5",
        "5000000000000000000000",
        "false"
      ],
      "transaction": {
        "from": "0x509536fb08b977af9ff7726692cc449885f7f93b",
        "to": "0x4432fce60bbc8db0a34f722c7e5f89fb7f74a944",
        "gas": "0x66d00",
        "value": "0x0",
        "input": "0x34a4e2c200000000000000000000000000000000000000000000000000000000000000e00000000000000000000000000000000000000000000000000000000000000140000000000000000000000000000000000000000000000000000000000002a300000000000000000000000000eb3d24fc850ab358616e29c7b89ab630629e1a37000000000000000000000000af6264b2cc418d17f1067ac8ac8687aae979d5e500000000000000000000000000000000000000000000010f0cf064dd59200000000000000000000000000000000000000000000000000000000000000000000000000000000000000000000000000000000000000000000000000000000000020000000000000000000000000b15c0706feaee3b97be312aaeb6e5bf1d8ed2f200000000000000000000000060f4f4eceabe4f1dee2afb93532d95e1e3404526000000000000000000000000000000000000000000000000000000000000000774657374696e6700000000000000000000000000000000000000000000000000",
        "nonce": "0x23",
        "chainId": "0x14a34"
      },
      "additionalContracts": [],
      "isFixedGasLimit": false
    },
    {
      "hash": "0x6f23ef25168c5c538cb7f9b373ac370f6af19493bca4cf51a31e3ba6fe3e2b25",
      "transactionType": "CALL",
      "contractName": null,
      "contractAddress": "0x4432fce60bbc8db0a34f722c7e5f89fb7f74a944",
      "function": "createBet(address[],string,uint256,address,address,uint256,bool)",
      "arguments": [
        "[0x5Cdd96E75A4c72A9989DF61BDfd6Ef9bE5755197, 0x1cEe469066323a120EF86BB72C40A5e04812eeBE]",
        "testing",
        "172800",
        "0xeb3d24fc850ab358616e29C7B89AB630629E1a37",
        "0xaf6264B2cc418d17F1067ac8aC8687aae979D5e5",
        "5000000000000000000000",
        "false"
      ],
      "transaction": {
        "from": "0x509536fb08b977af9ff7726692cc449885f7f93b",
        "to": "0x4432fce60bbc8db0a34f722c7e5f89fb7f74a944",
        "gas": "0x66d00",
        "value": "0x0",
        "input": "0x34a4e2c200000000000000000000000000000000000000000000000000000000000000e00000000000000000000000000000000000000000000000000000000000000140000000000000000000000000000000000000000000000000000000000002a300000000000000000000000000eb3d24fc850ab358616e29c7b89ab630629e1a37000000000000000000000000af6264b2cc418d17f1067ac8ac8687aae979d5e500000000000000000000000000000000000000000000010f0cf064dd59200000000000000000000000000000000000000000000000000000000000000000000000000000000000000000000000000000000000000000000000000000000000020000000000000000000000005cdd96e75a4c72a9989df61bdfd6ef9be57551970000000000000000000000001cee469066323a120ef86bb72c40a5e04812eebe000000000000000000000000000000000000000000000000000000000000000774657374696e6700000000000000000000000000000000000000000000000000",
        "nonce": "0x24",
        "chainId": "0x14a34"
      },
      "additionalContracts": [],
      "isFixedGasLimit": false
    }
  ],
  "receipts": [
    {
      "status": "0x1",
      "cumulativeGasUsed": "0x3d919c",
      "logs": [
        {
          "address": "0x4432fce60bbc8db0a34f722c7e5f89fb7f74a944",
          "topics": [
            "0xb6395e763905e20e0c3d197b42de4c8c35f34a6aea5a8f3fbd406035296ad364",
            "0x000000000000000000000000000000000000000000000000000000000000000c",
            "0x000000000000000000000000a433f323541cf82f97395076b5f83a7a06f1646c",
            "0x000000000000000000000000a433f323541cf82f97395076b5f83a7a06f1646c"
          ],
          "data": "0x00000000000000000000000000000000000000000000000000000000000000c0000000000000000000000000000000000000000000000000000000000002a300000000000000000000000000000000000000000000000000000000006707a382000000000000000000000000eb3d24fc850ab358616e29c7b89ab630629e1a37000000000000000000000000af6264b2cc418d17f1067ac8ac8687aae979d5e500000000000000000000000000000000000000000000010f0cf064dd59200000000000000000000000000000000000000000000000000000000000000000000774657374696e6700000000000000000000000000000000000000000000000000",
          "blockHash": "0x0dcbcdd1cb032916414087a5ae977aa9881bd7ab96edd9e250b236b463ae51b3",
          "blockNumber": "0xfa2251",
          "transactionHash": "0xb648ce7263ba76f023de1f757756b263aad79206268d37adc8824934bfc09cd4",
          "transactionIndex": "0x12",
          "logIndex": "0x35",
          "removed": false
        }
      ],
      "logsBloom": "0x00000002000000000000000000000040000002000000000000000000000000000000000000400200000000000000000000800000000000000000000000000000000000000000000000000000000000000000000000000000000000000000000000000000000000000000000000000000000000000000000000000000000000000000000000000000000000000000000000000000000000000400000000000000000000000000000000000000000000000000000001000000000000000000000000000000000000802000000010000000000000000000000000000000000000200000000000000000000000000000000000000000000000000000000000000000",
      "type": "0x2",
      "transactionHash": "0xb648ce7263ba76f023de1f757756b263aad79206268d37adc8824934bfc09cd4",
      "transactionIndex": "0x12",
      "blockHash": "0x0dcbcdd1cb032916414087a5ae977aa9881bd7ab96edd9e250b236b463ae51b3",
      "blockNumber": "0xfa2251",
      "gasUsed": "0x45168",
      "effectiveGasPrice": "0x3b9e8a24",
      "from": "0x509536fb08b977af9ff7726692cc449885f7f93b",
      "to": "0x4432fce60bbc8db0a34f722c7e5f89fb7f74a944",
      "contractAddress": null,
      "l1BaseFeeScalar": "0x44d",
      "l1BlobBaseFee": "0x1",
      "l1BlobBaseFeeScalar": "0xa118b",
      "l1Fee": "0x8c70cd2e",
      "l1GasPrice": "0x2e3e9e29",
      "l1GasUsed": "0xac6"
    },
    {
      "status": "0x1",
      "cumulativeGasUsed": "0x1a26ea",
      "logs": [
        {
          "address": "0x4432fce60bbc8db0a34f722c7e5f89fb7f74a944",
          "topics": [
            "0xb6395e763905e20e0c3d197b42de4c8c35f34a6aea5a8f3fbd406035296ad364",
            "0x000000000000000000000000000000000000000000000000000000000000000d",
            "0x000000000000000000000000af9f7baad97940770e999b3e83e27161ff764438",
            "0x000000000000000000000000c75f11ab67db20669fdf9263d0174de3d174a19c"
          ],
          "data": "0x00000000000000000000000000000000000000000000000000000000000000c0000000000000000000000000000000000000000000000000000000000002a300000000000000000000000000000000000000000000000000000000006707a38a000000000000000000000000eb3d24fc850ab358616e29c7b89ab630629e1a37000000000000000000000000af6264b2cc418d17f1067ac8ac8687aae979d5e500000000000000000000000000000000000000000000010f0cf064dd59200000000000000000000000000000000000000000000000000000000000000000000774657374696e6700000000000000000000000000000000000000000000000000",
          "blockHash": "0xfe5d71d94062c84c262284d85ee12a9e3a2c4c4081af976ace2edbd959e533cd",
          "blockNumber": "0xfa2255",
          "transactionHash": "0x30b414d22317bc5392016bf64e3a392b79fbc087415fbc2e003c94224a209d18",
          "transactionIndex": "0xc",
          "logIndex": "0x11",
          "removed": false
        }
      ],
      "logsBloom": "0x00000002000000000040000000000040000000000000000000000000000000000000000000400000000000000000000000000000000000000000000000000000000000000000040100000000008001000042000000000000000000000000000000000000000000000000000000000000000000000000000000000000000000000000000000000000000000008000000000000000000000000000000000000000000000000000000000000000000000000000000000000000000000000000000000000000000000802000000010000000000000000000000000000000000000020000000000000000000000000000000000000000000000000000000000000000",
      "type": "0x2",
      "transactionHash": "0x30b414d22317bc5392016bf64e3a392b79fbc087415fbc2e003c94224a209d18",
      "transactionIndex": "0xc",
      "blockHash": "0xfe5d71d94062c84c262284d85ee12a9e3a2c4c4081af976ace2edbd959e533cd",
      "blockNumber": "0xfa2255",
      "gasUsed": "0x4a6f4",
      "effectiveGasPrice": "0x3bc08607",
      "from": "0x509536fb08b977af9ff7726692cc449885f7f93b",
      "to": "0x4432fce60bbc8db0a34f722c7e5f89fb7f74a944",
      "contractAddress": null,
      "l1BaseFeeScalar": "0x44d",
      "l1BlobBaseFee": "0x1",
      "l1BlobBaseFeeScalar": "0xa118b",
      "l1Fee": "0x9ccba21c",
      "l1GasPrice": "0x2e3e9e29",
      "l1GasUsed": "0xc07"
    },
    {
      "status": "0x1",
      "cumulativeGasUsed": "0x11f1f3",
      "logs": [
        {
          "address": "0x4432fce60bbc8db0a34f722c7e5f89fb7f74a944",
          "topics": [
            "0xb6395e763905e20e0c3d197b42de4c8c35f34a6aea5a8f3fbd406035296ad364",
            "0x000000000000000000000000000000000000000000000000000000000000000e",
            "0x000000000000000000000000e33168596ce656f754d4b02f9619ee0020ed59c1",
            "0x000000000000000000000000f93296445f28f803a77ef9c961740c3e6c611954"
          ],
          "data": "0x00000000000000000000000000000000000000000000000000000000000000c0000000000000000000000000000000000000000000000000000000000002a300000000000000000000000000000000000000000000000000000000006707a394000000000000000000000000eb3d24fc850ab358616e29c7b89ab630629e1a37000000000000000000000000af6264b2cc418d17f1067ac8ac8687aae979d5e500000000000000000000000000000000000000000000010f0cf064dd59200000000000000000000000000000000000000000000000000000000000000000000774657374696e6700000000000000000000000000000000000000000000000000",
          "blockHash": "0xbee16f14656635c5ae3d672c9a3ebb22fd09cbfe371b97c87f16f39186acf995",
          "blockNumber": "0xfa225a",
          "transactionHash": "0x07c5f34bb7e20dc2cd4ae3c096b5a3def7718974330072cca68e988d606d0d9f",
          "transactionIndex": "0x13",
          "logIndex": "0x6",
          "removed": false
        }
      ],
      "logsBloom": "0x00000002000000000000000000000040000000000000000000000000000000000000000000400000000000000000000000000000000000000000000000000000000000000000000800000000000000000000000000000000000000000000000000000000000010000000000000000000000000000000000000000000000000000000000000000000000000000000000009000000000000000000000000000000000000000000000000000000000000000000000000000020000000000000000000000000000000802000400010000000000000000000000000000000000000000000000000000000040000000000000000000000000000080000001000000000",
      "type": "0x2",
      "transactionHash": "0x07c5f34bb7e20dc2cd4ae3c096b5a3def7718974330072cca68e988d606d0d9f",
      "transactionIndex": "0x13",
      "blockHash": "0xbee16f14656635c5ae3d672c9a3ebb22fd09cbfe371b97c87f16f39186acf995",
      "blockNumber": "0xfa225a",
      "gasUsed": "0x4a6e8",
      "effectiveGasPrice": "0x3bd240e2",
      "from": "0x509536fb08b977af9ff7726692cc449885f7f93b",
      "to": "0x4432fce60bbc8db0a34f722c7e5f89fb7f74a944",
      "contractAddress": null,
      "l1BaseFeeScalar": "0x44d",
      "l1BlobBaseFee": "0x1",
      "l1BlobBaseFeeScalar": "0xa118b",
      "l1Fee": "0x9e7b62f0",
      "l1GasPrice": "0x2ebdf514",
      "l1GasUsed": "0xc07"
    },
    {
      "status": "0x1",
      "cumulativeGasUsed": "0x92e0aa",
      "logs": [
        {
          "address": "0x4432fce60bbc8db0a34f722c7e5f89fb7f74a944",
          "topics": [
            "0xb6395e763905e20e0c3d197b42de4c8c35f34a6aea5a8f3fbd406035296ad364",
            "0x000000000000000000000000000000000000000000000000000000000000000f",
            "0x000000000000000000000000d56f9a475329d484586a3b2e6c06400fa67af19d",
            "0x000000000000000000000000a36dba29d4138ff3cf2b64af01dd3dbdc2281aa4"
          ],
          "data": "0x00000000000000000000000000000000000000000000000000000000000000c0000000000000000000000000000000000000000000000000000000000002a300000000000000000000000000000000000000000000000000000000006707a39c000000000000000000000000eb3d24fc850ab358616e29c7b89ab630629e1a37000000000000000000000000af6264b2cc418d17f1067ac8ac8687aae979d5e500000000000000000000000000000000000000000000010f0cf064dd59200000000000000000000000000000000000000000000000000000000000000000000774657374696e6700000000000000000000000000000000000000000000000000",
          "blockHash": "0x80911d0ddc1a7784d062248a8e8761137156ac655c7c480a62278681f5c8cbf4",
          "blockNumber": "0xfa225e",
          "transactionHash": "0x12a1136db8d90ccfe1d3777868f43ca12e50e8f4c528bfbdb269fc5bcdee5084",
          "transactionIndex": "0x1f",
          "logIndex": "0x9a",
          "removed": false
        }
      ],
      "logsBloom": "0x00000002000000000000000000010040000000000000000000000000000000000000000000400000000000000000000000000010000000000000000000000000000000000000000000000000000000000000000000000000000000000002000000000000000000000000002000000000000000000000000000000000000000000000000000000800000000000000000000000010000000000000000000000000000001000000000000000000000000000000000000000000000000000000000000000000000000802000000010000000000000000000000000000000000000000000000600000000000000000000000000000000000000000000000000000000",
      "type": "0x2",
      "transactionHash": "0x12a1136db8d90ccfe1d3777868f43ca12e50e8f4c528bfbdb269fc5bcdee5084",
      "transactionIndex": "0x1f",
      "blockHash": "0x80911d0ddc1a7784d062248a8e8761137156ac655c7c480a62278681f5c8cbf4",
      "blockNumber": "0xfa225e",
      "gasUsed": "0x4a6f4",
      "effectiveGasPrice": "0x3b974676",
      "from": "0x509536fb08b977af9ff7726692cc449885f7f93b",
      "to": "0x4432fce60bbc8db0a34f722c7e5f89fb7f74a944",
      "contractAddress": null,
      "l1BaseFeeScalar": "0x44d",
      "l1BlobBaseFee": "0x1",
      "l1BlobBaseFeeScalar": "0xa118b",
      "l1Fee": "0x964fd77b",
      "l1GasPrice": "0x2c5515f2",
      "l1GasUsed": "0xc07"
    },
    {
      "status": "0x1",
      "cumulativeGasUsed": "0x36fbe1",
      "logs": [
        {
          "address": "0x4432fce60bbc8db0a34f722c7e5f89fb7f74a944",
          "topics": [
            "0xb6395e763905e20e0c3d197b42de4c8c35f34a6aea5a8f3fbd406035296ad364",
            "0x0000000000000000000000000000000000000000000000000000000000000010",
            "0x000000000000000000000000efa84cff891990ce59da2760a92dae59c886a7d6",
            "0x0000000000000000000000005806d57d593bf9f0f976be10c301a1c373cd6ff9"
          ],
          "data": "0x00000000000000000000000000000000000000000000000000000000000000c0000000000000000000000000000000000000000000000000000000000002a300000000000000000000000000000000000000000000000000000000006707a3a2000000000000000000000000eb3d24fc850ab358616e29c7b89ab630629e1a37000000000000000000000000af6264b2cc418d17f1067ac8ac8687aae979d5e500000000000000000000000000000000000000000000010f0cf064dd59200000000000000000000000000000000000000000000000000000000000000000000774657374696e6700000000000000000000000000000000000000000000000000",
          "blockHash": "0x104d4252825845b900317b3e174a55ab3686a3a9c5d079a04de4244ac282cc5c",
          "blockNumber": "0xfa2261",
          "transactionHash": "0xd5246415a2c6b21671ca47b911f4423f091214a0df83ae0ba7c45661fff76919",
          "transactionIndex": "0xd",
          "logIndex": "0x33",
          "removed": false
        }
      ],
      "logsBloom": "0x00000002100000000000000000000040000000000000000000000000000000000000000000400000000000000000000000000000000000020000000000000000000000000000000000000000000000000000000000000000000000000000000000000000000000000000000000000000000400000000000000000000040000000000800000800000000008000000000000000100000000000000000000000000000000000000000000000000000000200000000000000000000000000000000000000000000000802000000010000000000000000000000000000000000000000000000000000000000000000000000000000000000000000000000000000000",
      "type": "0x2",
      "transactionHash": "0xd5246415a2c6b21671ca47b911f4423f091214a0df83ae0ba7c45661fff76919",
      "transactionIndex": "0xd",
      "blockHash": "0x104d4252825845b900317b3e174a55ab3686a3a9c5d079a04de4244ac282cc5c",
      "blockNumber": "0xfa2261",
      "gasUsed": "0x4a6f4",
      "effectiveGasPrice": "0x3bbc606a",
      "from": "0x509536fb08b977af9ff7726692cc449885f7f93b",
      "to": "0x4432fce60bbc8db0a34f722c7e5f89fb7f74a944",
      "contractAddress": null,
      "l1BaseFeeScalar": "0x44d",
      "l1BlobBaseFee": "0x1",
      "l1BlobBaseFeeScalar": "0xa118b",
      "l1Fee": "0x964fd77b",
      "l1GasPrice": "0x2c5515f2",
      "l1GasUsed": "0xc07"
    },
    {
      "status": "0x1",
      "cumulativeGasUsed": "0x30f844",
      "logs": [
        {
          "address": "0x4432fce60bbc8db0a34f722c7e5f89fb7f74a944",
          "topics": [
            "0xb6395e763905e20e0c3d197b42de4c8c35f34a6aea5a8f3fbd406035296ad364",
            "0x0000000000000000000000000000000000000000000000000000000000000011",
            "0x000000000000000000000000e96c133ef10870893153a9cfa8f6c51e8adbb2aa",
            "0x0000000000000000000000008f137be820e65927ba452f17acc850c55e5be5fd"
          ],
          "data": "0x00000000000000000000000000000000000000000000000000000000000000c0000000000000000000000000000000000000000000000000000000000002a300000000000000000000000000000000000000000000000000000000006707a3ac000000000000000000000000eb3d24fc850ab358616e29c7b89ab630629e1a37000000000000000000000000af6264b2cc418d17f1067ac8ac8687aae979d5e500000000000000000000000000000000000000000000010f0cf064dd59200000000000000000000000000000000000000000000000000000000000000000000774657374696e6700000000000000000000000000000000000000000000000000",
          "blockHash": "0xd87162a921c02fa8ffd405ef4747306acd28d4c054e7b9c8bfd47205ea68cbb2",
          "blockNumber": "0xfa2266",
          "transactionHash": "0x677bb94c05670470284043d54f54fce37f980bc8b45d517ebf15d600d8ef9c0b",
          "transactionIndex": "0xe",
          "logIndex": "0x2c",
          "removed": false
        }
      ],
      "logsBloom": "0x00000002000000000000000000000040000000000000000000000000000000000000000000400000000004000000000000000000000000000000000000000000000000000000000000000000000000000000000000000000000000000000000000000000000000000000000000000000000000004000000000000000008000000000000000000000000000000000402000000000000000000000000000000000000000000000000000000000000000000000000000000000000000800400000000001000000000802000000010000000000000000000000000000800000000000000000000000000000000000000000000000000000000000000000000000000",
      "type": "0x2",
      "transactionHash": "0x677bb94c05670470284043d54f54fce37f980bc8b45d517ebf15d600d8ef9c0b",
      "transactionIndex": "0xe",
      "blockHash": "0xd87162a921c02fa8ffd405ef4747306acd28d4c054e7b9c8bfd47205ea68cbb2",
      "blockNumber": "0xfa2266",
      "gasUsed": "0x4a6f4",
      "effectiveGasPrice": "0x3bb16318",
      "from": "0x509536fb08b977af9ff7726692cc449885f7f93b",
      "to": "0x4432fce60bbc8db0a34f722c7e5f89fb7f74a944",
      "contractAddress": null,
      "l1BaseFeeScalar": "0x44d",
      "l1BlobBaseFee": "0x1",
      "l1BlobBaseFeeScalar": "0xa118b",
      "l1Fee": "0x8e0f6148",
      "l1GasPrice": "0x29e60b82",
      "l1GasUsed": "0xc07"
    },
    {
      "status": "0x1",
      "cumulativeGasUsed": "0x348902",
      "logs": [
        {
          "address": "0x4432fce60bbc8db0a34f722c7e5f89fb7f74a944",
          "topics": [
            "0xb6395e763905e20e0c3d197b42de4c8c35f34a6aea5a8f3fbd406035296ad364",
            "0x0000000000000000000000000000000000000000000000000000000000000012",
            "0x0000000000000000000000002f51baed7952dbf46e8b0dc8ee9db7753c10d630",
            "0x000000000000000000000000697856bc95fb86f5f09f38e2aaf2f911f5123836"
          ],
          "data": "0x00000000000000000000000000000000000000000000000000000000000000c0000000000000000000000000000000000000000000000000000000000002a300000000000000000000000000000000000000000000000000000000006707a3b4000000000000000000000000eb3d24fc850ab358616e29c7b89ab630629e1a37000000000000000000000000af6264b2cc418d17f1067ac8ac8687aae979d5e500000000000000000000000000000000000000000000010f0cf064dd59200000000000000000000000000000000000000000000000000000000000000000000774657374696e6700000000000000000000000000000000000000000000000000",
          "blockHash": "0x765693b7b83c247b0a949365e31eaac2dc4f06a92c6964d8cad8072e0c8976c0",
          "blockNumber": "0xfa226a",
          "transactionHash": "0x2b91b68108a5f71def405d913597bc510ed5474673af6b7b0264a0404066b055",
          "transactionIndex": "0x10",
          "logIndex": "0x34",
          "removed": false
        }
      ],
      "logsBloom": "0x00000002000000000000000000000040000000000000000000000000000000000000000000400000000000000000080000000000000000000000000000000000000000000000000000000000000000000000000000000008000000000000000000400000040000000000000000000000000000000000000000000000000400000000000000000800000000000000040000000000000000000000000000000000000000000000000000000000000000000000000000000040000000000000000000000000000000802400000010000000000000000000000000000000000000000000000000000000000000000000000000000000000000000000000000000000",
      "type": "0x2",
      "transactionHash": "0x2b91b68108a5f71def405d913597bc510ed5474673af6b7b0264a0404066b055",
      "transactionIndex": "0x10",
      "blockHash": "0x765693b7b83c247b0a949365e31eaac2dc4f06a92c6964d8cad8072e0c8976c0",
      "blockNumber": "0xfa226a",
      "gasUsed": "0x4a6f4",
      "effectiveGasPrice": "0x3b9d83c1",
      "from": "0x509536fb08b977af9ff7726692cc449885f7f93b",
      "to": "0x4432fce60bbc8db0a34f722c7e5f89fb7f74a944",
      "contractAddress": null,
      "l1BaseFeeScalar": "0x44d",
      "l1BlobBaseFee": "0x1",
      "l1BlobBaseFeeScalar": "0xa118b",
      "l1Fee": "0x9ee3f190",
      "l1GasPrice": "0x2edccb84",
      "l1GasUsed": "0xc07"
    },
    {
      "status": "0x1",
      "cumulativeGasUsed": "0x18d267",
      "logs": [
        {
          "address": "0x4432fce60bbc8db0a34f722c7e5f89fb7f74a944",
          "topics": [
            "0xb6395e763905e20e0c3d197b42de4c8c35f34a6aea5a8f3fbd406035296ad364",
            "0x0000000000000000000000000000000000000000000000000000000000000013",
            "0x000000000000000000000000f3d083fd6c194d99ab6586e9108c2ae140bb116e",
            "0x000000000000000000000000869a9f56ea29ec33597e66cb736c5c614bc74562"
          ],
          "data": "0x00000000000000000000000000000000000000000000000000000000000000c0000000000000000000000000000000000000000000000000000000000002a300000000000000000000000000000000000000000000000000000000006707a3bc000000000000000000000000eb3d24fc850ab358616e29c7b89ab630629e1a37000000000000000000000000af6264b2cc418d17f1067ac8ac8687aae979d5e500000000000000000000000000000000000000000000010f0cf064dd59200000000000000000000000000000000000000000000000000000000000000000000774657374696e6700000000000000000000000000000000000000000000000000",
          "blockHash": "0x4dc97286a19325ade1d180a44a0ede49967868c38addaa7b302a689f77554abc",
          "blockNumber": "0xfa226e",
          "transactionHash": "0x4b079bde06c63dc2dc6d795432b6b50dff88ab0790aab9f7aeeae75ce58045d3",
          "transactionIndex": "0x9",
          "logIndex": "0x8",
          "removed": false
        }
      ],
      "logsBloom": "0x20000002000000100000000000800040000000000000000000000000000000000000000040400000000000000000000000000000000000000000000000040000000000000000000000000000000000000004000000000000000000000000000000000000000000000000000000000000000000000000000000000000000088000000000000000000000000000000000000000000000000000100000000000000000000000000000000000000000000000000000000000000000000000000000000000000000000802000000010000000000000000000000000000000000000000000000000000000000000000000000000000000000000000000000000000000",
      "type": "0x2",
      "transactionHash": "0x4b079bde06c63dc2dc6d795432b6b50dff88ab0790aab9f7aeeae75ce58045d3",
      "transactionIndex": "0x9",
      "blockHash": "0x4dc97286a19325ade1d180a44a0ede49967868c38addaa7b302a689f77554abc",
      "blockNumber": "0xfa226e",
      "gasUsed": "0x4a6f4",
      "effectiveGasPrice": "0x3c2585d6",
      "from": "0x509536fb08b977af9ff7726692cc449885f7f93b",
      "to": "0x4432fce60bbc8db0a34f722c7e5f89fb7f74a944",
      "contractAddress": null,
      "l1BaseFeeScalar": "0x44d",
      "l1BlobBaseFee": "0x1",
      "l1BlobBaseFeeScalar": "0xa118b",
      "l1Fee": "0x9ee3f190",
      "l1GasPrice": "0x2edccb84",
      "l1GasUsed": "0xc07"
    },
    {
      "status": "0x1",
      "cumulativeGasUsed": "0x29235c",
      "logs": [
        {
          "address": "0x4432fce60bbc8db0a34f722c7e5f89fb7f74a944",
          "topics": [
            "0xb6395e763905e20e0c3d197b42de4c8c35f34a6aea5a8f3fbd406035296ad364",
            "0x0000000000000000000000000000000000000000000000000000000000000014",
            "0x0000000000000000000000000b15c0706feaee3b97be312aaeb6e5bf1d8ed2f2",
            "0x00000000000000000000000060f4f4eceabe4f1dee2afb93532d95e1e3404526"
          ],
          "data": "0x00000000000000000000000000000000000000000000000000000000000000c0000000000000000000000000000000000000000000000000000000000002a300000000000000000000000000000000000000000000000000000000006707a3c4000000000000000000000000eb3d24fc850ab358616e29c7b89ab630629e1a37000000000000000000000000af6264b2cc418d17f1067ac8ac8687aae979d5e500000000000000000000000000000000000000000000010f0cf064dd59200000000000000000000000000000000000000000000000000000000000000000000774657374696e6700000000000000000000000000000000000000000000000000",
          "blockHash": "0x7f49c150c5a0fce61fbba840a238f2052de28d0384432aacd0117278dc0c2992",
          "blockNumber": "0xfa2272",
          "transactionHash": "0x666b77332a1b2e4c52a447a55897734361af7872e08e2a87b7c34eff1c642c42",
          "transactionIndex": "0x11",
          "logIndex": "0x20",
          "removed": false
        }
      ],
      "logsBloom": "0x00000002000000000000000000000040000000000000000000000000000000000000000000400000000000000000000000802000000000000000000000000000000000000000000000000000000000000000000000000000000000000000000000000000000000000000000000000000000000000000000000000080000000000000000000000000000000000000000000000000000400400000000000100000000000000000000020000000000000000000000000000000000000000000000000000000000000802000000050000000000000000000000000000000000000000000000000800000000000000000000000000000000000000000000000000000",
      "type": "0x2",
      "transactionHash": "0x666b77332a1b2e4c52a447a55897734361af7872e08e2a87b7c34eff1c642c42",
      "transactionIndex": "0x11",
      "blockHash": "0x7f49c150c5a0fce61fbba840a238f2052de28d0384432aacd0117278dc0c2992",
      "blockNumber": "0xfa2272",
      "gasUsed": "0x4a6f4",
      "effectiveGasPrice": "0x3bdef134",
      "from": "0x509536fb08b977af9ff7726692cc449885f7f93b",
      "to": "0x4432fce60bbc8db0a34f722c7e5f89fb7f74a944",
      "contractAddress": null,
      "l1BaseFeeScalar": "0x44d",
      "l1BlobBaseFee": "0x1",
      "l1BlobBaseFeeScalar": "0xa118b",
      "l1Fee": "0x9ee3f190",
      "l1GasPrice": "0x2edccb84",
      "l1GasUsed": "0xc07"
    },
    {
      "status": "0x1",
      "cumulativeGasUsed": "0x52ec8f",
      "logs": [
        {
          "address": "0x4432fce60bbc8db0a34f722c7e5f89fb7f74a944",
          "topics": [
            "0xb6395e763905e20e0c3d197b42de4c8c35f34a6aea5a8f3fbd406035296ad364",
            "0x0000000000000000000000000000000000000000000000000000000000000015",
            "0x0000000000000000000000005cdd96e75a4c72a9989df61bdfd6ef9be5755197",
            "0x0000000000000000000000001cee469066323a120ef86bb72c40a5e04812eebe"
          ],
          "data": "0x00000000000000000000000000000000000000000000000000000000000000c0000000000000000000000000000000000000000000000000000000000002a300000000000000000000000000000000000000000000000000000000006707a3cc000000000000000000000000eb3d24fc850ab358616e29c7b89ab630629e1a37000000000000000000000000af6264b2cc418d17f1067ac8ac8687aae979d5e500000000000000000000000000000000000000000000010f0cf064dd59200000000000000000000000000000000000000000000000000000000000000000000774657374696e6700000000000000000000000000000000000000000000000000",
          "blockHash": "0x4fac60bc5be935777ea1bf7f9642ec60b06b051ff8b4c16b5563804ab9b1019f",
          "blockNumber": "0xfa2276",
          "transactionHash": "0x6f23ef25168c5c538cb7f9b373ac370f6af19493bca4cf51a31e3ba6fe3e2b25",
          "transactionIndex": "0x13",
          "logIndex": "0x53",
          "removed": false
        }
      ],
      "logsBloom": "0x08000002000000000000000000000040000000000000000000000000000000000000000000400000000000020000000000000000000000000000000000000000001000000000000000000000000000000000010000000000000000800000000000000000000000000000000000000000000000000000000000000000000000000000000000000000000000000000000000000000000000000000000000000000000000000000000000000000010000000000000000000000000000000000000000000000000000c02000000010000000000000000000000000000000000002002000000000000000000000000000000000000000000000000000000000000000",
      "type": "0x2",
      "transactionHash": "0x6f23ef25168c5c538cb7f9b373ac370f6af19493bca4cf51a31e3ba6fe3e2b25",
      "transactionIndex": "0x13",
      "blockHash": "0x4fac60bc5be935777ea1bf7f9642ec60b06b051ff8b4c16b5563804ab9b1019f",
      "blockNumber": "0xfa2276",
      "gasUsed": "0x4a6f4",
      "effectiveGasPrice": "0x3bbad23a",
      "from": "0x509536fb08b977af9ff7726692cc449885f7f93b",
      "to": "0x4432fce60bbc8db0a34f722c7e5f89fb7f74a944",
      "contractAddress": null,
      "l1BaseFeeScalar": "0x44d",
      "l1BlobBaseFee": "0x1",
      "l1BlobBaseFeeScalar": "0xa118b",
      "l1Fee": "0x9cbc6c71",
      "l1GasPrice": "0x2e3a21c7",
      "l1GasUsed": "0xc07"
    }
  ],
  "libraries": [],
  "pending": [],
  "returns": {},
  "timestamp": 1728553935,
  "chain": 84532,
  "commit": "891f26c"
}