{
  "transactions": [
    {
      "hash": "0x79343f5ecc77b07ed876a6cf979068e0b0fbb91e4c136422f13d42c268ec713d",
      "transactionType": "CALL",
      "contractName": null,
      "contractAddress": "0x4432fce60bbc8db0a34f722c7e5f89fb7f74a944",
      "function": "createBet(address[],string,uint256,address,address,uint256,bool)",
      "arguments": [
        "[0xa433f323541CF82f97395076B5F83a7A06F1646c, 0xa433f323541CF82f97395076B5F83a7A06F1646c]",
        "testing",
        "172800",
        "0xeb3d24fc850ab358616e29C7B89AB630629E1a37",
        "0xaf6264B2cc418d17F1067ac8aC8687aae979D5e5",
        "5000000000000000000000",
        "false"
      ],
      "transaction": {
        "from": "0x509536fb08b977af9ff7726692cc449885f7f93b",
        "to": "0x4432fce60bbc8db0a34f722c7e5f89fb7f74a944",
        "gas": "0x5f6d7",
        "value": "0x0",
        "input": "0x34a4e2c200000000000000000000000000000000000000000000000000000000000000e00000000000000000000000000000000000000000000000000000000000000140000000000000000000000000000000000000000000000000000000000002a300000000000000000000000000eb3d24fc850ab358616e29c7b89ab630629e1a37000000000000000000000000af6264b2cc418d17f1067ac8ac8687aae979d5e500000000000000000000000000000000000000000000010f0cf064dd5920000000000000000000000000000000000000000000000000000000000000000000000000000000000000000000000000000000000000000000000000000000000002000000000000000000000000a433f323541cf82f97395076b5f83a7a06f1646c000000000000000000000000a433f323541cf82f97395076b5f83a7a06f1646c000000000000000000000000000000000000000000000000000000000000000774657374696e6700000000000000000000000000000000000000000000000000",
        "nonce": "0x11",
        "chainId": "0x14a34"
      },
      "additionalContracts": [],
      "isFixedGasLimit": false
    },
    {
      "hash": "0x0d04c6b5f4685e9cadfbfef50d208491f4347125a8e9b378005e3e5ec9315e64",
      "transactionType": "CALL",
      "contractName": null,
      "contractAddress": "0x4432fce60bbc8db0a34f722c7e5f89fb7f74a944",
      "function": "createBet(address[],string,uint256,address,address,uint256,bool)",
      "arguments": [
        "[0xAF9f7bAAd97940770E999B3E83E27161Ff764438, 0xa433f323541CF82f97395076B5F83a7A06F1646c]",
        "testing",
        "172800",
        "0xeb3d24fc850ab358616e29C7B89AB630629E1a37",
        "0xaf6264B2cc418d17F1067ac8aC8687aae979D5e5",
        "5000000000000000000000",
        "false"
      ],
      "transaction": {
        "from": "0x509536fb08b977af9ff7726692cc449885f7f93b",
        "to": "0x4432fce60bbc8db0a34f722c7e5f89fb7f74a944",
        "gas": "0x66d00",
        "value": "0x0",
        "input": "0x34a4e2c200000000000000000000000000000000000000000000000000000000000000e00000000000000000000000000000000000000000000000000000000000000140000000000000000000000000000000000000000000000000000000000002a300000000000000000000000000eb3d24fc850ab358616e29c7b89ab630629e1a37000000000000000000000000af6264b2cc418d17f1067ac8ac8687aae979d5e500000000000000000000000000000000000000000000010f0cf064dd5920000000000000000000000000000000000000000000000000000000000000000000000000000000000000000000000000000000000000000000000000000000000002000000000000000000000000af9f7baad97940770e999b3e83e27161ff764438000000000000000000000000a433f323541cf82f97395076b5f83a7a06f1646c000000000000000000000000000000000000000000000000000000000000000774657374696e6700000000000000000000000000000000000000000000000000",
        "nonce": "0x12",
        "chainId": "0x14a34"
      },
      "additionalContracts": [],
      "isFixedGasLimit": false
    },
    {
      "hash": "0xecb81b4aab60a8e38d08b762185542f0bc6ff8d3a56c841ffaf414dd60e915f8",
      "transactionType": "CALL",
      "contractName": null,
      "contractAddress": "0x4432fce60bbc8db0a34f722c7e5f89fb7f74a944",
      "function": "createBet(address[],string,uint256,address,address,uint256,bool)",
      "arguments": [
        "[0xE33168596Ce656f754d4b02f9619EE0020Ed59c1, 0xa433f323541CF82f97395076B5F83a7A06F1646c]",
        "testing",
        "172800",
        "0xeb3d24fc850ab358616e29C7B89AB630629E1a37",
        "0xaf6264B2cc418d17F1067ac8aC8687aae979D5e5",
        "5000000000000000000000",
        "false"
      ],
      "transaction": {
        "from": "0x509536fb08b977af9ff7726692cc449885f7f93b",
        "to": "0x4432fce60bbc8db0a34f722c7e5f89fb7f74a944",
        "gas": "0x66cef",
        "value": "0x0",
        "input": "0x34a4e2c200000000000000000000000000000000000000000000000000000000000000e00000000000000000000000000000000000000000000000000000000000000140000000000000000000000000000000000000000000000000000000000002a300000000000000000000000000eb3d24fc850ab358616e29c7b89ab630629e1a37000000000000000000000000af6264b2cc418d17f1067ac8ac8687aae979d5e500000000000000000000000000000000000000000000010f0cf064dd5920000000000000000000000000000000000000000000000000000000000000000000000000000000000000000000000000000000000000000000000000000000000002000000000000000000000000e33168596ce656f754d4b02f9619ee0020ed59c1000000000000000000000000a433f323541cf82f97395076b5f83a7a06f1646c000000000000000000000000000000000000000000000000000000000000000774657374696e6700000000000000000000000000000000000000000000000000",
        "nonce": "0x13",
        "chainId": "0x14a34"
      },
      "additionalContracts": [],
      "isFixedGasLimit": false
    },
    {
      "hash": "0xdb1d5d6cd201604991190fd8fe87de39e58605dddd8ad135d0d7bfe8199f64e5",
      "transactionType": "CALL",
      "contractName": null,
      "contractAddress": "0x4432fce60bbc8db0a34f722c7e5f89fb7f74a944",
      "function": "createBet(address[],string,uint256,address,address,uint256,bool)",
      "arguments": [
        "[0xd56F9A475329D484586a3B2e6C06400FA67af19d, 0xa433f323541CF82f97395076B5F83a7A06F1646c]",
        "testing",
        "172800",
        "0xeb3d24fc850ab358616e29C7B89AB630629E1a37",
        "0xaf6264B2cc418d17F1067ac8aC8687aae979D5e5",
        "5000000000000000000000",
        "false"
      ],
      "transaction": {
        "from": "0x509536fb08b977af9ff7726692cc449885f7f93b",
        "to": "0x4432fce60bbc8db0a34f722c7e5f89fb7f74a944",
        "gas": "0x66d00",
        "value": "0x0",
        "input": "0x34a4e2c200000000000000000000000000000000000000000000000000000000000000e00000000000000000000000000000000000000000000000000000000000000140000000000000000000000000000000000000000000000000000000000002a300000000000000000000000000eb3d24fc850ab358616e29c7b89ab630629e1a37000000000000000000000000af6264b2cc418d17f1067ac8ac8687aae979d5e500000000000000000000000000000000000000000000010f0cf064dd5920000000000000000000000000000000000000000000000000000000000000000000000000000000000000000000000000000000000000000000000000000000000002000000000000000000000000d56f9a475329d484586a3b2e6c06400fa67af19d000000000000000000000000a433f323541cf82f97395076b5f83a7a06f1646c000000000000000000000000000000000000000000000000000000000000000774657374696e6700000000000000000000000000000000000000000000000000",
        "nonce": "0x14",
        "chainId": "0x14a34"
      },
      "additionalContracts": [],
      "isFixedGasLimit": false
    },
    {
      "hash": "0x9e5ea3210d8e5f02cff0f9283198ce246fbbe33d547c8c536ebddadf55d8da3d",
      "transactionType": "CALL",
      "contractName": null,
      "contractAddress": "0x4432fce60bbc8db0a34f722c7e5f89fb7f74a944",
      "function": "createBet(address[],string,uint256,address,address,uint256,bool)",
      "arguments": [
        "[0xEFA84CFF891990CE59da2760a92dae59c886A7D6, 0xa433f323541CF82f97395076B5F83a7A06F1646c]",
        "testing",
        "172800",
        "0xeb3d24fc850ab358616e29C7B89AB630629E1a37",
        "0xaf6264B2cc418d17F1067ac8aC8687aae979D5e5",
        "5000000000000000000000",
        "false"
      ],
      "transaction": {
        "from": "0x509536fb08b977af9ff7726692cc449885f7f93b",
        "to": "0x4432fce60bbc8db0a34f722c7e5f89fb7f74a944",
        "gas": "0x66d00",
        "value": "0x0",
        "input": "0x34a4e2c200000000000000000000000000000000000000000000000000000000000000e00000000000000000000000000000000000000000000000000000000000000140000000000000000000000000000000000000000000000000000000000002a300000000000000000000000000eb3d24fc850ab358616e29c7b89ab630629e1a37000000000000000000000000af6264b2cc418d17f1067ac8ac8687aae979d5e500000000000000000000000000000000000000000000010f0cf064dd5920000000000000000000000000000000000000000000000000000000000000000000000000000000000000000000000000000000000000000000000000000000000002000000000000000000000000efa84cff891990ce59da2760a92dae59c886a7d6000000000000000000000000a433f323541cf82f97395076b5f83a7a06f1646c000000000000000000000000000000000000000000000000000000000000000774657374696e6700000000000000000000000000000000000000000000000000",
        "nonce": "0x15",
        "chainId": "0x14a34"
      },
      "additionalContracts": [],
      "isFixedGasLimit": false
    },
    {
      "hash": "0xc296a17a271d813bde60c8ee3b506e53c5f9bb3d51973d92328a261dc7fc46c2",
      "transactionType": "CALL",
      "contractName": null,
      "contractAddress": "0x4432fce60bbc8db0a34f722c7e5f89fb7f74a944",
      "function": "createBet(address[],string,uint256,address,address,uint256,bool)",
      "arguments": [
        "[0xe96c133eF10870893153a9CFa8f6C51e8adbB2Aa, 0xa433f323541CF82f97395076B5F83a7A06F1646c]",
        "testing",
        "172800",
        "0xeb3d24fc850ab358616e29C7B89AB630629E1a37",
        "0xaf6264B2cc418d17F1067ac8aC8687aae979D5e5",
        "5000000000000000000000",
        "false"
      ],
      "transaction": {
        "from": "0x509536fb08b977af9ff7726692cc449885f7f93b",
        "to": "0x4432fce60bbc8db0a34f722c7e5f89fb7f74a944",
        "gas": "0x66d00",
        "value": "0x0",
        "input": "0x34a4e2c200000000000000000000000000000000000000000000000000000000000000e00000000000000000000000000000000000000000000000000000000000000140000000000000000000000000000000000000000000000000000000000002a300000000000000000000000000eb3d24fc850ab358616e29c7b89ab630629e1a37000000000000000000000000af6264b2cc418d17f1067ac8ac8687aae979d5e500000000000000000000000000000000000000000000010f0cf064dd5920000000000000000000000000000000000000000000000000000000000000000000000000000000000000000000000000000000000000000000000000000000000002000000000000000000000000e96c133ef10870893153a9cfa8f6c51e8adbb2aa000000000000000000000000a433f323541cf82f97395076b5f83a7a06f1646c000000000000000000000000000000000000000000000000000000000000000774657374696e6700000000000000000000000000000000000000000000000000",
        "nonce": "0x16",
        "chainId": "0x14a34"
      },
      "additionalContracts": [],
      "isFixedGasLimit": false
    },
    {
      "hash": "0x4e30be150216e3b42c98453dbecdb342eb0898f9bfe567b33ffc7953ed1dba15",
      "transactionType": "CALL",
      "contractName": null,
      "contractAddress": "0x4432fce60bbc8db0a34f722c7e5f89fb7f74a944",
      "function": "createBet(address[],string,uint256,address,address,uint256,bool)",
      "arguments": [
        "[0x2f51BaED7952dBf46e8B0Dc8ee9dB7753c10D630, 0xa433f323541CF82f97395076B5F83a7A06F1646c]",
        "testing",
        "172800",
        "0xeb3d24fc850ab358616e29C7B89AB630629E1a37",
        "0xaf6264B2cc418d17F1067ac8aC8687aae979D5e5",
        "5000000000000000000000",
        "false"
      ],
      "transaction": {
        "from": "0x509536fb08b977af9ff7726692cc449885f7f93b",
        "to": "0x4432fce60bbc8db0a34f722c7e5f89fb7f74a944",
        "gas": "0x66d00",
        "value": "0x0",
        "input": "0x34a4e2c200000000000000000000000000000000000000000000000000000000000000e00000000000000000000000000000000000000000000000000000000000000140000000000000000000000000000000000000000000000000000000000002a300000000000000000000000000eb3d24fc850ab358616e29c7b89ab630629e1a37000000000000000000000000af6264b2cc418d17f1067ac8ac8687aae979d5e500000000000000000000000000000000000000000000010f0cf064dd59200000000000000000000000000000000000000000000000000000000000000000000000000000000000000000000000000000000000000000000000000000000000020000000000000000000000002f51baed7952dbf46e8b0dc8ee9db7753c10d630000000000000000000000000a433f323541cf82f97395076b5f83a7a06f1646c000000000000000000000000000000000000000000000000000000000000000774657374696e6700000000000000000000000000000000000000000000000000",
        "nonce": "0x17",
        "chainId": "0x14a34"
      },
      "additionalContracts": [],
      "isFixedGasLimit": false
    },
    {
      "hash": "0x3e7d0c9b78919f67209876075808ae9042cadbd5bdf260cd4f617cd69fca803f",
      "transactionType": "CALL",
      "contractName": null,
      "contractAddress": "0x4432fce60bbc8db0a34f722c7e5f89fb7f74a944",
      "function": "createBet(address[],string,uint256,address,address,uint256,bool)",
      "arguments": [
        "[0xf3d083fd6c194D99AB6586e9108c2ae140bB116e, 0xa433f323541CF82f97395076B5F83a7A06F1646c]",
        "testing",
        "172800",
        "0xeb3d24fc850ab358616e29C7B89AB630629E1a37",
        "0xaf6264B2cc418d17F1067ac8aC8687aae979D5e5",
        "5000000000000000000000",
        "false"
      ],
      "transaction": {
        "from": "0x509536fb08b977af9ff7726692cc449885f7f93b",
        "to": "0x4432fce60bbc8db0a34f722c7e5f89fb7f74a944",
        "gas": "0x66d00",
        "value": "0x0",
        "input": "0x34a4e2c200000000000000000000000000000000000000000000000000000000000000e00000000000000000000000000000000000000000000000000000000000000140000000000000000000000000000000000000000000000000000000000002a300000000000000000000000000eb3d24fc850ab358616e29c7b89ab630629e1a37000000000000000000000000af6264b2cc418d17f1067ac8ac8687aae979d5e500000000000000000000000000000000000000000000010f0cf064dd5920000000000000000000000000000000000000000000000000000000000000000000000000000000000000000000000000000000000000000000000000000000000002000000000000000000000000f3d083fd6c194d99ab6586e9108c2ae140bb116e000000000000000000000000a433f323541cf82f97395076b5f83a7a06f1646c000000000000000000000000000000000000000000000000000000000000000774657374696e6700000000000000000000000000000000000000000000000000",
        "nonce": "0x18",
        "chainId": "0x14a34"
      },
      "additionalContracts": [],
      "isFixedGasLimit": false
    },
    {
      "hash": "0x730e4cb0514c711fc3fce2d00db5173fec54399b4dabfa0e8ec8cd45bf15a27c",
      "transactionType": "CALL",
      "contractName": null,
      "contractAddress": "0x4432fce60bbc8db0a34f722c7e5f89fb7f74a944",
      "function": "createBet(address[],string,uint256,address,address,uint256,bool)",
      "arguments": [
        "[0x0B15c0706FeAeE3B97Be312aAEb6E5bF1d8eD2F2, 0xa433f323541CF82f97395076B5F83a7A06F1646c]",
        "testing",
        "172800",
        "0xeb3d24fc850ab358616e29C7B89AB630629E1a37",
        "0xaf6264B2cc418d17F1067ac8aC8687aae979D5e5",
        "5000000000000000000000",
        "false"
      ],
      "transaction": {
        "from": "0x509536fb08b977af9ff7726692cc449885f7f93b",
        "to": "0x4432fce60bbc8db0a34f722c7e5f89fb7f74a944",
        "gas": "0x66d00",
        "value": "0x0",
        "input": "0x34a4e2c200000000000000000000000000000000000000000000000000000000000000e00000000000000000000000000000000000000000000000000000000000000140000000000000000000000000000000000000000000000000000000000002a300000000000000000000000000eb3d24fc850ab358616e29c7b89ab630629e1a37000000000000000000000000af6264b2cc418d17f1067ac8ac8687aae979d5e500000000000000000000000000000000000000000000010f0cf064dd59200000000000000000000000000000000000000000000000000000000000000000000000000000000000000000000000000000000000000000000000000000000000020000000000000000000000000b15c0706feaee3b97be312aaeb6e5bf1d8ed2f2000000000000000000000000a433f323541cf82f97395076b5f83a7a06f1646c000000000000000000000000000000000000000000000000000000000000000774657374696e6700000000000000000000000000000000000000000000000000",
        "nonce": "0x19",
        "chainId": "0x14a34"
      },
      "additionalContracts": [],
      "isFixedGasLimit": false
    },
    {
      "hash": "0x47d6eca174a1afb5919dc9ec91c9b1781010a44e7b28d5227f8d90c0ee07cc60",
      "transactionType": "CALL",
      "contractName": null,
      "contractAddress": "0x4432fce60bbc8db0a34f722c7e5f89fb7f74a944",
      "function": "createBet(address[],string,uint256,address,address,uint256,bool)",
      "arguments": [
        "[0x5Cdd96E75A4c72A9989DF61BDfd6Ef9bE5755197, 0xa433f323541CF82f97395076B5F83a7A06F1646c]",
        "testing",
        "172800",
        "0xeb3d24fc850ab358616e29C7B89AB630629E1a37",
        "0xaf6264B2cc418d17F1067ac8aC8687aae979D5e5",
        "5000000000000000000000",
        "false"
      ],
      "transaction": {
        "from": "0x509536fb08b977af9ff7726692cc449885f7f93b",
        "to": "0x4432fce60bbc8db0a34f722c7e5f89fb7f74a944",
        "gas": "0x66d00",
        "value": "0x0",
        "input": "0x34a4e2c200000000000000000000000000000000000000000000000000000000000000e00000000000000000000000000000000000000000000000000000000000000140000000000000000000000000000000000000000000000000000000000002a300000000000000000000000000eb3d24fc850ab358616e29c7b89ab630629e1a37000000000000000000000000af6264b2cc418d17f1067ac8ac8687aae979d5e500000000000000000000000000000000000000000000010f0cf064dd59200000000000000000000000000000000000000000000000000000000000000000000000000000000000000000000000000000000000000000000000000000000000020000000000000000000000005cdd96e75a4c72a9989df61bdfd6ef9be5755197000000000000000000000000a433f323541cf82f97395076b5f83a7a06f1646c000000000000000000000000000000000000000000000000000000000000000774657374696e6700000000000000000000000000000000000000000000000000",
        "nonce": "0x1a",
        "chainId": "0x14a34"
      },
      "additionalContracts": [],
      "isFixedGasLimit": false
    }
  ],
  "receipts": [
    {
      "status": "0x1",
      "cumulativeGasUsed": "0x187304",
      "logs": [
        {
          "address": "0x4432fce60bbc8db0a34f722c7e5f89fb7f74a944",
          "topics": [
            "0xb6395e763905e20e0c3d197b42de4c8c35f34a6aea5a8f3fbd406035296ad364",
            "0x0000000000000000000000000000000000000000000000000000000000000002",
            "0x000000000000000000000000a433f323541cf82f97395076b5f83a7a06f1646c",
            "0x000000000000000000000000a433f323541cf82f97395076b5f83a7a06f1646c"
          ],
          "data": "0x00000000000000000000000000000000000000000000000000000000000000c0000000000000000000000000000000000000000000000000000000000002a300000000000000000000000000000000000000000000000000000000006707a0a6000000000000000000000000eb3d24fc850ab358616e29c7b89ab630629e1a37000000000000000000000000af6264b2cc418d17f1067ac8ac8687aae979d5e500000000000000000000000000000000000000000000010f0cf064dd59200000000000000000000000000000000000000000000000000000000000000000000774657374696e6700000000000000000000000000000000000000000000000000",
          "blockHash": "0xcf489475c62060ed46c6cfebc8bf152c1eeb5c811d330f1be5b3858c5df4705f",
          "blockNumber": "0xfa20e3",
          "transactionHash": "0x79343f5ecc77b07ed876a6cf979068e0b0fbb91e4c136422f13d42c268ec713d",
          "transactionIndex": "0xc",
          "logIndex": "0xb",
          "removed": false
        }
      ],
      "logsBloom": "0x04000002000000000000000000000040000000000000000000000000000000000000000000400000000000000000000000800000000000000000000000000000000000000000000000000000000000000000000000000000000000000000000000000000000000000000000000000000000000000000000000000000000000000000000000000000000000000000000000000000000000000400000000000000000000000000000000000100000000000000000001000000000000000000000000000000000000802000000010000000000000000000000000000000000000000000000000000000000000000000000000000000008000000000000000000000",
      "type": "0x2",
      "transactionHash": "0x79343f5ecc77b07ed876a6cf979068e0b0fbb91e4c136422f13d42c268ec713d",
      "transactionIndex": "0xc",
      "blockHash": "0xcf489475c62060ed46c6cfebc8bf152c1eeb5c811d330f1be5b3858c5df4705f",
      "blockNumber": "0xfa20e3",
      "gasUsed": "0x45168",
      "effectiveGasPrice": "0x3bfd9ad5",
      "from": "0x509536fb08b977af9ff7726692cc449885f7f93b",
      "to": "0x4432fce60bbc8db0a34f722c7e5f89fb7f74a944",
      "contractAddress": null,
      "l1BaseFeeScalar": "0x44d",
      "l1BlobBaseFee": "0x1",
      "l1BlobBaseFeeScalar": "0xa118b",
      "l1Fee": "0x288840d5",
      "l1GasPrice": "0xd58b715",
      "l1GasUsed": "0xac6"
    },
    {
      "status": "0x1",
      "cumulativeGasUsed": "0x19d3be",
      "logs": [
        {
          "address": "0x4432fce60bbc8db0a34f722c7e5f89fb7f74a944",
          "topics": [
            "0xb6395e763905e20e0c3d197b42de4c8c35f34a6aea5a8f3fbd406035296ad364",
            "0x0000000000000000000000000000000000000000000000000000000000000003",
            "0x000000000000000000000000af9f7baad97940770e999b3e83e27161ff764438",
            "0x000000000000000000000000a433f323541cf82f97395076b5f83a7a06f1646c"
          ],
          "data": "0x00000000000000000000000000000000000000000000000000000000000000c0000000000000000000000000000000000000000000000000000000000002a300000000000000000000000000000000000000000000000000000000006707a0aa000000000000000000000000eb3d24fc850ab358616e29c7b89ab630629e1a37000000000000000000000000af6264b2cc418d17f1067ac8ac8687aae979d5e500000000000000000000000000000000000000000000010f0cf064dd59200000000000000000000000000000000000000000000000000000000000000000000774657374696e6700000000000000000000000000000000000000000000000000",
          "blockHash": "0x6bb7898be69e7a4b7da721dc81136970da04783d76c96f949e77360a502d8d8b",
          "blockNumber": "0xfa20e5",
          "transactionHash": "0x0d04c6b5f4685e9cadfbfef50d208491f4347125a8e9b378005e3e5ec9315e64",
          "transactionIndex": "0xb",
          "logIndex": "0x19",
          "removed": false
        }
      ],
      "logsBloom": "0x00000002000000000000000000000040000000000000000000000000000000000000000000400000000000000000000000800000020000000000000000000000000000000000040000000000008001000000000000000000000000000000000000000000000000000000000000000000000000000000000000000000000000000000000000000000000000000000000000000000000000000400000000000000000000000000000000000000000000000000000001800000000000000000400000000000000000802000000010000000000000000000000000000000000000000000000000000000000000000000000000000000000000000000000000000000",
      "type": "0x2",
      "transactionHash": "0x0d04c6b5f4685e9cadfbfef50d208491f4347125a8e9b378005e3e5ec9315e64",
      "transactionIndex": "0xb",
      "blockHash": "0x6bb7898be69e7a4b7da721dc81136970da04783d76c96f949e77360a502d8d8b",
      "blockNumber": "0xfa20e5",
      "gasUsed": "0x4a6f4",
      "effectiveGasPrice": "0x3bab5298",
      "from": "0x509536fb08b977af9ff7726692cc449885f7f93b",
      "to": "0x4432fce60bbc8db0a34f722c7e5f89fb7f74a944",
      "contractAddress": null,
      "l1BaseFeeScalar": "0x44d",
      "l1BlobBaseFee": "0x1",
      "l1BlobBaseFeeScalar": "0xa118b",
      "l1Fee": "0x2d409ada",
      "l1GasPrice": "0xd58b715",
      "l1GasUsed": "0xc07"
    },
    {
      "status": "0x1",
      "cumulativeGasUsed": "0xe141e",
      "logs": [
        {
          "address": "0x4432fce60bbc8db0a34f722c7e5f89fb7f74a944",
          "topics": [
            "0xb6395e763905e20e0c3d197b42de4c8c35f34a6aea5a8f3fbd406035296ad364",
            "0x0000000000000000000000000000000000000000000000000000000000000004",
            "0x000000000000000000000000e33168596ce656f754d4b02f9619ee0020ed59c1",
            "0x000000000000000000000000a433f323541cf82f97395076b5f83a7a06f1646c"
          ],
          "data": "0x00000000000000000000000000000000000000000000000000000000000000c0000000000000000000000000000000000000000000000000000000000002a300000000000000000000000000000000000000000000000000000000006707a0b2000000000000000000000000eb3d24fc850ab358616e29c7b89ab630629e1a37000000000000000000000000af6264b2cc418d17f1067ac8ac8687aae979d5e500000000000000000000000000000000000000000000010f0cf064dd59200000000000000000000000000000000000000000000000000000000000000000000774657374696e6700000000000000000000000000000000000000000000000000",
          "blockHash": "0x0a7024ebcf3c553b4662b22d16cb1ad97c5a9e408e14999b2b6fb0d8fdcdb162",
          "blockNumber": "0xfa20e9",
          "transactionHash": "0xecb81b4aab60a8e38d08b762185542f0bc6ff8d3a56c841ffaf414dd60e915f8",
          "transactionIndex": "0x5",
          "logIndex": "0x7",
          "removed": false
        }
      ],
      "logsBloom": "0x00000002000000000000000000000040000000000000000000000000000000000000000000400000000000000000000000800000000000000000000000000000000000000000000000000000000000000000000000000000000000000000000008000000000000000000000000000000000000000000000000000000000000000000000000000000000000000000000001000000000000000400000000000000000000000000000000000000000000000000000001000000002000000000000000000000000000802000000010000000000000008000000000000000000000000000000000000000040000000000000000000000000000000000001000000000",
      "type": "0x2",
      "transactionHash": "0xecb81b4aab60a8e38d08b762185542f0bc6ff8d3a56c841ffaf414dd60e915f8",
      "transactionIndex": "0x5",
      "blockHash": "0x0a7024ebcf3c553b4662b22d16cb1ad97c5a9e408e14999b2b6fb0d8fdcdb162",
      "blockNumber": "0xfa20e9",
      "gasUsed": "0x4a6e8",
      "effectiveGasPrice": "0x3c0489b2",
      "from": "0x509536fb08b977af9ff7726692cc449885f7f93b",
      "to": "0x4432fce60bbc8db0a34f722c7e5f89fb7f74a944",
      "contractAddress": null,
      "l1BaseFeeScalar": "0x44d",
      "l1BlobBaseFee": "0x1",
      "l1BlobBaseFeeScalar": "0xa118b",
      "l1Fee": "0x2e7cfcf4",
      "l1GasPrice": "0xdb60726",
      "l1GasUsed": "0xc07"
    },
    {
      "status": "0x1",
      "cumulativeGasUsed": "0x1496d6",
      "logs": [
        {
          "address": "0x4432fce60bbc8db0a34f722c7e5f89fb7f74a944",
          "topics": [
            "0xb6395e763905e20e0c3d197b42de4c8c35f34a6aea5a8f3fbd406035296ad364",
            "0x0000000000000000000000000000000000000000000000000000000000000005",
            "0x000000000000000000000000d56f9a475329d484586a3b2e6c06400fa67af19d",
            "0x000000000000000000000000a433f323541cf82f97395076b5f83a7a06f1646c"
          ],
          "data": "0x00000000000000000000000000000000000000000000000000000000000000c0000000000000000000000000000000000000000000000000000000000002a300000000000000000000000000000000000000000000000000000000006707a0bc000000000000000000000000eb3d24fc850ab358616e29c7b89ab630629e1a37000000000000000000000000af6264b2cc418d17f1067ac8ac8687aae979d5e500000000000000000000000000000000000000000000010f0cf064dd59200000000000000000000000000000000000000000000000000000000000000000000774657374696e6700000000000000000000000000000000000000000000000000",
          "blockHash": "0x0f68a8d32347a0fbfb40175f056ac6a6a5808502df70ce144cf0f69af944cbf8",
          "blockNumber": "0xfa20ee",
          "transactionHash": "0xdb1d5d6cd201604991190fd8fe87de39e58605dddd8ad135d0d7bfe8199f64e5",
          "transactionIndex": "0xd",
          "logIndex": "0xd",
          "removed": false
        }
      ],
      "logsBloom": "0x00000002000000000000000000010040000000000000000000000000000000000000000000400000000000000000000000800000000000000000000000000000000010000000000000000000000000000000000000000000000000000000000000000000000000000000002000000000000000000000000000000000000000000000000000000000000000000000001000000800000000000400000000000000000001000000000000000000000000000000000001000000000000000000000000000000000000802000000010000000000000000000000000000000000000000000000000000000000000000000000000000000000000000000000000000000",
      "type": "0x2",
      "transactionHash": "0xdb1d5d6cd201604991190fd8fe87de39e58605dddd8ad135d0d7bfe8199f64e5",
      "transactionIndex": "0xd",
      "blockHash": "0x0f68a8d32347a0fbfb40175f056ac6a6a5808502df70ce144cf0f69af944cbf8",
      "blockNumber": "0xfa20ee",
      "gasUsed": "0x4a6f4",
      "effectiveGasPrice": "0x3bb25a66",
      "from": "0x509536fb08b977af9ff7726692cc449885f7f93b",
      "to": "0x4432fce60bbc8db0a34f722c7e5f89fb7f74a944",
      "contractAddress": null,
      "l1BaseFeeScalar": "0x44d",
      "l1BlobBaseFee": "0x1",
      "l1BlobBaseFeeScalar": "0xa118b",
      "l1Fee": "0x2caa6b3c",
      "l1GasPrice": "0xd2c6b80",
      "l1GasUsed": "0xc07"
    },
    {
      "status": "0x1",
      "cumulativeGasUsed": "0xc25ee",
      "logs": [
        {
          "address": "0x4432fce60bbc8db0a34f722c7e5f89fb7f74a944",
          "topics": [
            "0xb6395e763905e20e0c3d197b42de4c8c35f34a6aea5a8f3fbd406035296ad364",
            "0x0000000000000000000000000000000000000000000000000000000000000006",
            "0x000000000000000000000000efa84cff891990ce59da2760a92dae59c886a7d6",
            "0x000000000000000000000000a433f323541cf82f97395076b5f83a7a06f1646c"
          ],
          "data": "0x00000000000000000000000000000000000000000000000000000000000000c0000000000000000000000000000000000000000000000000000000000002a300000000000000000000000000000000000000000000000000000000006707a0c4000000000000000000000000eb3d24fc850ab358616e29c7b89ab630629e1a37000000000000000000000000af6264b2cc418d17f1067ac8ac8687aae979d5e500000000000000000000000000000000000000000000010f0cf064dd59200000000000000000000000000000000000000000000000000000000000000000000774657374696e6700000000000000000000000000000000000000000000000000",
          "blockHash": "0x4c649c27fea294ea325fce0cec8c563a39f61b385e9536275558ee368df7d242",
          "blockNumber": "0xfa20f2",
          "transactionHash": "0x9e5ea3210d8e5f02cff0f9283198ce246fbbe33d547c8c536ebddadf55d8da3d",
          "transactionIndex": "0x5",
          "logIndex": "0x7",
          "removed": false
        }
      ],
      "logsBloom": "0x00000002000000000000000000000040000000000000000000000000000000000000000000400000000000000000000000800000000400020000000000000000000000000000000000000000000000000000000000000000000000000000000000000000000000000000000000000000000400000000000000000000000000000000000400000000000000000000000000000000000000000400000000000000000000000000000000000000000000200000000001000000000000080000000000000000000000802000000010000000000000000000000000000000000000000000000000000000000000000000000000000000000000000000000000000000",
      "type": "0x2",
      "transactionHash": "0x9e5ea3210d8e5f02cff0f9283198ce246fbbe33d547c8c536ebddadf55d8da3d",
      "transactionIndex": "0x5",
      "blockHash": "0x4c649c27fea294ea325fce0cec8c563a39f61b385e9536275558ee368df7d242",
      "blockNumber": "0xfa20f2",
      "gasUsed": "0x4a6f4",
      "effectiveGasPrice": "0x3bfc17fc",
      "from": "0x509536fb08b977af9ff7726692cc449885f7f93b",
      "to": "0x4432fce60bbc8db0a34f722c7e5f89fb7f74a944",
      "contractAddress": null,
      "l1BaseFeeScalar": "0x44d",
      "l1BlobBaseFee": "0x1",
      "l1BlobBaseFeeScalar": "0xa118b",
      "l1Fee": "0x2caa6b3c",
      "l1GasPrice": "0xd2c6b80",
      "l1GasUsed": "0xc07"
    },
    {
      "status": "0x1",
      "cumulativeGasUsed": "0x17662c",
      "logs": [
        {
          "address": "0x4432fce60bbc8db0a34f722c7e5f89fb7f74a944",
          "topics": [
            "0xb6395e763905e20e0c3d197b42de4c8c35f34a6aea5a8f3fbd406035296ad364",
            "0x0000000000000000000000000000000000000000000000000000000000000007",
            "0x000000000000000000000000e96c133ef10870893153a9cfa8f6c51e8adbb2aa",
            "0x000000000000000000000000a433f323541cf82f97395076b5f83a7a06f1646c"
          ],
          "data": "0x00000000000000000000000000000000000000000000000000000000000000c0000000000000000000000000000000000000000000000000000000000002a300000000000000000000000000000000000000000000000000000000006707a0ca000000000000000000000000eb3d24fc850ab358616e29c7b89ab630629e1a37000000000000000000000000af6264b2cc418d17f1067ac8ac8687aae979d5e500000000000000000000000000000000000000000000010f0cf064dd59200000000000000000000000000000000000000000000000000000000000000000000774657374696e6700000000000000000000000000000000000000000000000000",
          "blockHash": "0x4f89524804735a264b5349e7620e0bc0a352abb27e70cb7a1f5d9597fed5fcbf",
          "blockNumber": "0xfa20f5",
          "transactionHash": "0xc296a17a271d813bde60c8ee3b506e53c5f9bb3d51973d92328a261dc7fc46c2",
          "transactionIndex": "0x7",
          "logIndex": "0xf",
          "removed": false
        }
      ],
      "logsBloom": "0x00000002000000000000000000000040000000000000000000000000000000000000000000400000000004000000000000801000000000000000000000000000000020000000000000000000000000000000000000000000000000000000000000000000000000000000000000000000000000000000000000000000000000000000000000000000000000000000400000000000000000000400000000000000000000000000000000000000000000000000000001000000000000000000000000000000000000802000000010000000000000000000000000000900000000000000000000000000000000000000000000000000000000000000000000000000",
      "type": "0x2",
      "transactionHash": "0xc296a17a271d813bde60c8ee3b506e53c5f9bb3d51973d92328a261dc7fc46c2",
      "transactionIndex": "0x7",
      "blockHash": "0x4f89524804735a264b5349e7620e0bc0a352abb27e70cb7a1f5d9597fed5fcbf",
      "blockNumber": "0xfa20f5",
      "gasUsed": "0x4a6f4",
      "effectiveGasPrice": "0x3c8f69b3",
      "from": "0x509536fb08b977af9ff7726692cc449885f7f93b",
      "to": "0x4432fce60bbc8db0a34f722c7e5f89fb7f74a944",
      "contractAddress": null,
      "l1BaseFeeScalar": "0x44d",
      "l1BlobBaseFee": "0x1",
      "l1BlobBaseFeeScalar": "0xa118b",
      "l1Fee": "0x2e027100",
      "l1GasPrice": "0xd91e26f",
      "l1GasUsed": "0xc07"
    },
    {
      "status": "0x1",
      "cumulativeGasUsed": "0x14496d",
      "logs": [
        {
          "address": "0x4432fce60bbc8db0a34f722c7e5f89fb7f74a944",
          "topics": [
            "0xb6395e763905e20e0c3d197b42de4c8c35f34a6aea5a8f3fbd406035296ad364",
            "0x0000000000000000000000000000000000000000000000000000000000000008",
            "0x0000000000000000000000002f51baed7952dbf46e8b0dc8ee9db7753c10d630",
            "0x000000000000000000000000a433f323541cf82f97395076b5f83a7a06f1646c"
          ],
          "data": "0x00000000000000000000000000000000000000000000000000000000000000c0000000000000000000000000000000000000000000000000000000000002a300000000000000000000000000000000000000000000000000000000006707a0d2000000000000000000000000eb3d24fc850ab358616e29c7b89ab630629e1a37000000000000000000000000af6264b2cc418d17f1067ac8ac8687aae979d5e500000000000000000000000000000000000000000000010f0cf064dd59200000000000000000000000000000000000000000000000000000000000000000000774657374696e6700000000000000000000000000000000000000000000000000",
          "blockHash": "0x275a7eefba396fdfb9c06eb94867716a6ed9c5f0030cd1fc0b7b9f9f5ea611d8",
          "blockNumber": "0xfa20f9",
          "transactionHash": "0x4e30be150216e3b42c98453dbecdb342eb0898f9bfe567b33ffc7953ed1dba15",
          "transactionIndex": "0xe",
          "logIndex": "0x3",
          "removed": false
        }
      ],
      "logsBloom": "0x00000002000000000000000000000040000000000000000000000000000000000000000000400000000000000000080000800000000080000000000000000000000000000000000000000000000000000000000000000008000000000000000000000000000000000000000000000000000000000000000000000000000400000080000000000000000000000000000000000000000000000400000000000000000000000000000000000000000000000000000001000000000000000000000040000000000000802000000010000000000000000000000000000000000000000000000000000000000000000000000000000000000000000000000000000000",
      "type": "0x2",
      "transactionHash": "0x4e30be150216e3b42c98453dbecdb342eb0898f9bfe567b33ffc7953ed1dba15",
      "transactionIndex": "0xe",
      "blockHash": "0x275a7eefba396fdfb9c06eb94867716a6ed9c5f0030cd1fc0b7b9f9f5ea611d8",
      "blockNumber": "0xfa20f9",
      "gasUsed": "0x4a6f4",
      "effectiveGasPrice": "0x3c56624b",
      "from": "0x509536fb08b977af9ff7726692cc449885f7f93b",
      "to": "0x4432fce60bbc8db0a34f722c7e5f89fb7f74a944",
      "contractAddress": null,
      "l1BaseFeeScalar": "0x44d",
      "l1BlobBaseFee": "0x1",
      "l1BlobBaseFeeScalar": "0xa118b",
      "l1Fee": "0x2e027100",
      "l1GasPrice": "0xd91e26f",
      "l1GasUsed": "0xc07"
    },
    {
      "status": "0x1",
      "cumulativeGasUsed": "0x1291fe",
      "logs": [
        {
          "address": "0x4432fce60bbc8db0a34f722c7e5f89fb7f74a944",
          "topics": [
            "0xb6395e763905e20e0c3d197b42de4c8c35f34a6aea5a8f3fbd406035296ad364",
            "0x0000000000000000000000000000000000000000000000000000000000000009",
            "0x000000000000000000000000f3d083fd6c194d99ab6586e9108c2ae140bb116e",
            "0x000000000000000000000000a433f323541cf82f97395076b5f83a7a06f1646c"
          ],
          "data": "0x00000000000000000000000000000000000000000000000000000000000000c0000000000000000000000000000000000000000000000000000000000002a300000000000000000000000000000000000000000000000000000000006707a0da000000000000000000000000eb3d24fc850ab358616e29c7b89ab630629e1a37000000000000000000000000af6264b2cc418d17f1067ac8ac8687aae979d5e500000000000000000000000000000000000000000000010f0cf064dd59200000000000000000000000000000000000000000000000000000000000000000000774657374696e6700000000000000000000000000000000000000000000000000",
          "blockHash": "0xbb198b550e38d80b0f2ce7c92ec374bef01ebebad4b7800c91760541b3f35661",
          "blockNumber": "0xfa20fd",
          "transactionHash": "0x3e7d0c9b78919f67209876075808ae9042cadbd5bdf260cd4f617cd69fca803f",
          "transactionIndex": "0x9",
          "logIndex": "0x10",
          "removed": false
        }
      ],
      "logsBloom": "0x00000002000000100000000000000040000000000000000000000000000000000000000000400000000000000000000000800000000000000000000000240000000000000000000000000000000000000000000000000000000000000000000000000000000000000000000000000000000000000000000000000000000080000000000000000000000000000000000000001000000000000400000000000000000000000000000000000000000000000000000001000000000000000000000000000000000000802000000010000000000000000000000000000000000000000000000000000000000000000000000000000000000000000000000000800000",
      "type": "0x2",
      "transactionHash": "0x3e7d0c9b78919f67209876075808ae9042cadbd5bdf260cd4f617cd69fca803f",
      "transactionIndex": "0x9",
      "blockHash": "0xbb198b550e38d80b0f2ce7c92ec374bef01ebebad4b7800c91760541b3f35661",
      "blockNumber": "0xfa20fd",
      "gasUsed": "0x4a6f4",
      "effectiveGasPrice": "0x3c81c908",
      "from": "0x509536fb08b977af9ff7726692cc449885f7f93b",
      "to": "0x4432fce60bbc8db0a34f722c7e5f89fb7f74a944",
      "contractAddress": null,
      "l1BaseFeeScalar": "0x44d",
      "l1BlobBaseFee": "0x1",
      "l1BlobBaseFeeScalar": "0xa118b",
      "l1Fee": "0x2e027100",
      "l1GasPrice": "0xd91e26f",
      "l1GasUsed": "0xc07"
    },
    {
      "status": "0x1",
      "cumulativeGasUsed": "0x555384",
      "logs": [
        {
          "address": "0x4432fce60bbc8db0a34f722c7e5f89fb7f74a944",
          "topics": [
            "0xb6395e763905e20e0c3d197b42de4c8c35f34a6aea5a8f3fbd406035296ad364",
            "0x000000000000000000000000000000000000000000000000000000000000000a",
            "0x0000000000000000000000000b15c0706feaee3b97be312aaeb6e5bf1d8ed2f2",
            "0x000000000000000000000000a433f323541cf82f97395076b5f83a7a06f1646c"
          ],
          "data": "0x00000000000000000000000000000000000000000000000000000000000000c0000000000000000000000000000000000000000000000000000000000002a300000000000000000000000000000000000000000000000000000000006707a0e2000000000000000000000000eb3d24fc850ab358616e29c7b89ab630629e1a37000000000000000000000000af6264b2cc418d17f1067ac8ac8687aae979d5e500000000000000000000000000000000000000000000010f0cf064dd59200000000000000000000000000000000000000000000000000000000000000000000774657374696e6700000000000000000000000000000000000000000000000000",
          "blockHash": "0x636bbdb721175a7045d998e0522d980656fb335bfea531cc65c7881edbf5fadd",
          "blockNumber": "0xfa2101",
          "transactionHash": "0x730e4cb0514c711fc3fce2d00db5173fec54399b4dabfa0e8ec8cd45bf15a27c",
          "transactionIndex": "0x14",
          "logIndex": "0x55",
          "removed": false
        }
      ],
      "logsBloom": "0x00000002000000000000000000000040000000000000000000000000000000000000000000400000000000000000000000800000040000000020000000000000000000000000000000000000000000000000000000000000000000000000000000000000000000000000000000000000000000000000000000000080000000000000000000000000010000000000000000000000000000000400000000000000000000000000000000000000000000000000000001000000000000000000000000000000000000802000000050000000000000000000000000000000000000000000000000800000000000000000000000000000000000000000000000000000",
      "type": "0x2",
      "transactionHash": "0x730e4cb0514c711fc3fce2d00db5173fec54399b4dabfa0e8ec8cd45bf15a27c",
      "transactionIndex": "0x14",
      "blockHash": "0x636bbdb721175a7045d998e0522d980656fb335bfea531cc65c7881edbf5fadd",
      "blockNumber": "0xfa2101",
      "gasUsed": "0x4a6f4",
      "effectiveGasPrice": "0x3c4a9597",
      "from": "0x509536fb08b977af9ff7726692cc449885f7f93b",
      "to": "0x4432fce60bbc8db0a34f722c7e5f89fb7f74a944",
      "contractAddress": null,
      "l1BaseFeeScalar": "0x44d",
      "l1BlobBaseFee": "0x1",
      "l1BlobBaseFeeScalar": "0xa118b",
      "l1Fee": "0x3352330b",
      "l1GasPrice": "0xf22ed0a",
      "l1GasUsed": "0xc07"
    },
    {
      "status": "0x1",
      "cumulativeGasUsed": "0x179217",
      "logs": [
        {
          "address": "0x4432fce60bbc8db0a34f722c7e5f89fb7f74a944",
          "topics": [
            "0xb6395e763905e20e0c3d197b42de4c8c35f34a6aea5a8f3fbd406035296ad364",
            "0x000000000000000000000000000000000000000000000000000000000000000b",
            "0x0000000000000000000000005cdd96e75a4c72a9989df61bdfd6ef9be5755197",
            "0x000000000000000000000000a433f323541cf82f97395076b5f83a7a06f1646c"
          ],
          "data": "0x00000000000000000000000000000000000000000000000000000000000000c0000000000000000000000000000000000000000000000000000000000002a300000000000000000000000000000000000000000000000000000000006707a0ea000000000000000000000000eb3d24fc850ab358616e29c7b89ab630629e1a37000000000000000000000000af6264b2cc418d17f1067ac8ac8687aae979d5e500000000000000000000000000000000000000000000010f0cf064dd59200000000000000000000000000000000000000000000000000000000000000000000774657374696e6700000000000000000000000000000000000000000000000000",
          "blockHash": "0x4d9df51a24c9af45f72a27a3eb7de2f5837a705ff328761f6c86bf9220b7c858",
          "blockNumber": "0xfa2105",
          "transactionHash": "0x47d6eca174a1afb5919dc9ec91c9b1781010a44e7b28d5227f8d90c0ee07cc60",
          "transactionIndex": "0xd",
          "logIndex": "0x12",
          "removed": false
        }
      ],
      "logsBloom": "0x00000002000000000000004000000040000000000000000000000000000000000000000000400000000000000000000000800000000000000000000000000000000000000000000000000000000000000000010000000000000000800000000000000000000000000000000000000000000000000000000000000000000000000000000000000000000000000000000000000000000000000400000000000000000000000000000000000000000000000000000001000000000000000000000000000000000000802000000010000000002000000000000000000000000002000000000000000000000000000000000000000000000000040000000000000000",
      "type": "0x2",
      "transactionHash": "0x47d6eca174a1afb5919dc9ec91c9b1781010a44e7b28d5227f8d90c0ee07cc60",
      "transactionIndex": "0xd",
      "blockHash": "0x4d9df51a24c9af45f72a27a3eb7de2f5837a705ff328761f6c86bf9220b7c858",
      "blockNumber": "0xfa2105",
      "gasUsed": "0x4a6f4",
      "effectiveGasPrice": "0x3c673044",
      "from": "0x509536fb08b977af9ff7726692cc449885f7f93b",
      "to": "0x4432fce60bbc8db0a34f722c7e5f89fb7f74a944",
      "contractAddress": null,
      "l1BaseFeeScalar": "0x44d",
      "l1BlobBaseFee": "0x1",
      "l1BlobBaseFeeScalar": "0xa118b",
      "l1Fee": "0x38c67420",
      "l1GasPrice": "0x10bebb3e",
      "l1GasUsed": "0xc07"
    }
  ],
  "libraries": [],
  "pending": [],
  "returns": {},
  "timestamp": 1728553198,
  "chain": 84532,
  "commit": "891f26c"
}