{
  "transactions": [
    {
      "hash": "0xf4a551bae227f2060d59f3b2ba75127a5a6705bbdf868922ee7798ecd7ae3f44",
      "transactionType": "CALL",
      "contractName": null,
      "contractAddress": "0x4432fce60bbc8db0a34f722c7e5f89fb7f74a944",
      "function": "createBet(address[],string,uint256,address,address,uint256,bool)",
      "arguments": [
        "[0xeb3d24fc850ab358616e29C7B89AB630629E1a37, 0xFA2ebA13c9E42f1dC3F7dE513dE5F95160dd2371]",
        "test bet",
        "172800",
        "0xeb3d24fc850ab358616e29C7B89AB630629E1a37",
        "0xaf6264B2cc418d17F1067ac8aC8687aae979D5e5",
        "5000000000000000000000",
        "false"
      ],
      "transaction": {
        "from": "0x509536fb08b977af9ff7726692cc449885f7f93b",
        "to": "0x4432fce60bbc8db0a34f722c7e5f89fb7f74a944",
        "gas": "0x66d11",
        "value": "0x0",
        "input": "0x34a4e2c200000000000000000000000000000000000000000000000000000000000000e00000000000000000000000000000000000000000000000000000000000000140000000000000000000000000000000000000000000000000000000000002a300000000000000000000000000eb3d24fc850ab358616e29c7b89ab630629e1a37000000000000000000000000af6264b2cc418d17f1067ac8ac8687aae979d5e500000000000000000000000000000000000000000000010f0cf064dd5920000000000000000000000000000000000000000000000000000000000000000000000000000000000000000000000000000000000000000000000000000000000002000000000000000000000000eb3d24fc850ab358616e29c7b89ab630629e1a37000000000000000000000000fa2eba13c9e42f1dc3f7de513de5f95160dd237100000000000000000000000000000000000000000000000000000000000000087465737420626574000000000000000000000000000000000000000000000000",
        "nonce": "0x10",
        "chainId": "0x14a34"
      },
      "additionalContracts": [],
      "isFixedGasLimit": false
    }
  ],
  "receipts": [
    {
      "status": "0x1",
      "cumulativeGasUsed": "0x14fa2d",
      "logs": [
        {
          "address": "0x4432fce60bbc8db0a34f722c7e5f89fb7f74a944",
          "topics": [
            "0xb6395e763905e20e0c3d197b42de4c8c35f34a6aea5a8f3fbd406035296ad364",
            "0x0000000000000000000000000000000000000000000000000000000000000001",
            "0x000000000000000000000000eb3d24fc850ab358616e29c7b89ab630629e1a37",
            "0x000000000000000000000000fa2eba13c9e42f1dc3f7de513de5f95160dd2371"
          ],
          "data": "0x00000000000000000000000000000000000000000000000000000000000000c0000000000000000000000000000000000000000000000000000000000002a300000000000000000000000000000000000000000000000000000000006707847e000000000000000000000000eb3d24fc850ab358616e29c7b89ab630629e1a37000000000000000000000000af6264b2cc418d17f1067ac8ac8687aae979d5e500000000000000000000000000000000000000000000010f0cf064dd5920000000000000000000000000000000000000000000000000000000000000000000087465737420626574000000000000000000000000000000000000000000000000",
          "blockHash": "0x9e8e027b8971ddff8447f85505c73c6e71f018139ac61f41c15f39292fd44c23",
          "blockNumber": "0xfa12cf",
          "transactionHash": "0xf4a551bae227f2060d59f3b2ba75127a5a6705bbdf868922ee7798ecd7ae3f44",
          "transactionIndex": "0xc",
          "logIndex": "0x15",
          "removed": false
        }
      ],
      "logsBloom": "0x00000002000000001000000000000040000000000000000000000000000200000000000000400000000000000000000000000000000000000000000000040000000100000000000000000000000000000000000000040000000000000000000000000000000000000000000000000000000000000000000000000000000000000000000000000800000000800000000000000000000000080000000000000000000000000000000000000000000000000000000000000000000000000000000000000000000000802000000010000000000000000000000000000000000040000000000000000000000000000000000000000000000000000000000000000000",
      "type": "0x2",
      "transactionHash": "0xf4a551bae227f2060d59f3b2ba75127a5a6705bbdf868922ee7798ecd7ae3f44",
      "transactionIndex": "0xc",
      "blockHash": "0x9e8e027b8971ddff8447f85505c73c6e71f018139ac61f41c15f39292fd44c23",
      "blockNumber": "0xfa12cf",
      "gasUsed": "0x4a700",
      "effectiveGasPrice": "0x42bac7cb",
      "from": "0x509536fb08b977af9ff7726692cc449885f7f93b",
      "to": "0x4432fce60bbc8db0a34f722c7e5f89fb7f74a944",
      "contractAddress": null,
      "l1BaseFeeScalar": "0x44d",
      "l1BlobBaseFee": "0x1",
      "l1BlobBaseFeeScalar": "0xa118b",
      "l1Fee": "0x998",
      "l1GasPrice": "0x2f4",
      "l1GasUsed": "0xafb"
    }
  ],
  "libraries": [],
  "pending": [],
  "returns": {},
  "timestamp": 1728545924,
  "chain": 84532,
  "commit": "891f26c"
}