{
  "transactions": [
    {
      "hash": "0xd2d932e7bcf8d8e59e93988ea1f2866403bc321e205d573b30660339de13c95d",
      "transactionType": "CALL",
      "contractName": "USDC",
      "contractAddress": "0xaf6264b2cc418d17f1067ac8ac8687aae979d5e5",
      "function": "mintTo(address,uint256)",
      "arguments": [
        "0x25EB6D618f0b90c883F9E724ed6f3B01354aC459",
        "87777000000000000000000"
      ],
      "transaction": {
        "from": "0x509536fb08b977af9ff7726692cc449885f7f93b",
        "to": "0xaf6264b2cc418d17f1067ac8ac8687aae979d5e5",
        "gas": "0x1157b",
        "value": "0x0",
        "input": "0x449a52f800000000000000000000000025eb6d618f0b90c883f9e724ed6f3b01354ac45900000000000000000000000000000000000000000000129666949585b6e40000",
        "nonce": "0x33",
        "chainId": "0x14a34"
      },
      "additionalContracts": [],
      "isFixedGasLimit": false
    }
  ],
  "receipts": [
    {
      "status": "0x1",
      "cumulativeGasUsed": "0x99673",
      "logs": [
        {
          "address": "0xaf6264b2cc418d17f1067ac8ac8687aae979d5e5",
          "topics": [
            "0xddf252ad1be2c89b69c2b068fc378daa952ba7f163c4a11628f55a4df523b3ef",
            "0x0000000000000000000000000000000000000000000000000000000000000000",
            "0x00000000000000000000000025eb6d618f0b90c883f9e724ed6f3b01354ac459"
          ],
          "data": "0x00000000000000000000000000000000000000000000129666949585b6e40000",
          "blockHash": "0xa2b9669dfa2e5b5e52d9f84302cf557b6043d3b3927d3659e4acf4a0778ee163",
          "blockNumber": "0xff8c31",
          "transactionHash": "0xd2d932e7bcf8d8e59e93988ea1f2866403bc321e205d573b30660339de13c95d",
          "transactionIndex": "0xa",
          "logIndex": "0x7",
          "removed": false
        }
      ],
      "logsBloom": "0x00000000000000000000000000000000000000000000400000000000000000000000000000000000000000000000000000000000000000000000000000000000000000000000000000000008000000000000000000000000000002000020000000000000020000000000000000000810000000000002000000000010000000000000000000000000000000000000000000000000000020000000000000000000000000000000000000000000000000000000000000000000000000000000000000000002000000000000000000000000000000000000000000000000000020000000000000000000000000000000000000000000000000000000000000000000",
      "type": "0x2",
      "transactionHash": "0xd2d932e7bcf8d8e59e93988ea1f2866403bc321e205d573b30660339de13c95d",
      "transactionIndex": "0xa",
      "blockHash": "0xa2b9669dfa2e5b5e52d9f84302cf557b6043d3b3927d3659e4acf4a0778ee163",
      "blockNumber": "0xff8c31",
      "gasUsed": "0xc8e5",
      "effectiveGasPrice": "0x229252",
      "from": "0x509536fb08b977af9ff7726692cc449885f7f93b",
      "to": "0xaf6264b2cc418d17f1067ac8ac8687aae979d5e5",
      "contractAddress": null,
      "l1BaseFeeScalar": "0x44d",
      "l1BlobBaseFee": "0x1",
      "l1BlobBaseFeeScalar": "0xa118b",
      "l1Fee": "0x4549f7290",
      "l1GasPrice": "0x27553c4f5",
      "l1GasUsed": "0x640"
    }
  ],
  "libraries": [],
  "pending": [],
  "returns": {},
  "timestamp": 1729263427,
  "chain": 84532,
  "commit": "891f26c"
}