{
  "transactions": [
    {
      "hash": "0xbbad209ea28da678431995a891b151b64c264e2f24691d3756d57ae129f500e2",
      "transactionType": "CALL",
      "contractName": "USDC",
      "contractAddress": "0xaf6264b2cc418d17f1067ac8ac8687aae979d5e5",
      "function": "mintTo(address,uint256)",
      "arguments": [
        "0x21A5a01E50af8a55F2ABa73bD3CbCd4Ed09168dC",
        "1555000000000000000000"
      ],
      "transaction": {
        "from": "0x509536fb08b977af9ff7726692cc449885f7f93b",
        "to": "0xaf6264b2cc418d17f1067ac8ac8687aae979d5e5",
        "gas": "0x125bd",
        "value": "0x0",
        "input": "0x449a52f800000000000000000000000021a5a01e50af8a55f2aba73bd3cbcd4ed09168dc0000000000000000000000000000000000000000000000544bf5c541c46c0000",
        "nonce": "0x29",
        "chainId": "0x14a34"
      },
      "additionalContracts": [],
      "isFixedGasLimit": false
    }
  ],
  "receipts": [
    {
      "status": "0x1",
      "cumulativeGasUsed": "0x32db49",
      "logs": [
        {
          "address": "0xaf6264b2cc418d17f1067ac8ac8687aae979d5e5",
          "topics": [
            "0xddf252ad1be2c89b69c2b068fc378daa952ba7f163c4a11628f55a4df523b3ef",
            "0x0000000000000000000000000000000000000000000000000000000000000000",
            "0x00000000000000000000000021a5a01e50af8a55f2aba73bd3cbcd4ed09168dc"
          ],
          "data": "0x0000000000000000000000000000000000000000000000544bf5c541c46c0000",
          "blockHash": "0xa7fefc5dcf144011d09adaba057caa7c3485b97fd5b21fc2bf2330655988fc66",
          "blockNumber": "0xfe9c64",
          "transactionHash": "0xbbad209ea28da678431995a891b151b64c264e2f24691d3756d57ae129f500e2",
          "transactionIndex": "0xc",
          "logIndex": "0x34",
          "removed": false
        }
      ],
      "logsBloom": "0x00000000000000000000000000000000000000000000000000000000000000000000000000000000000000000000000000000000000000000000000000000000000000000000004000000008000000000000000000000000000002000000000000000000021000000000000000000810000000000000000000000010000000000000000000000000000000000000000000000000000020000000000000000000000200000000000000000000000000000000000000000000000000000000000000000002000000000000000000000000000000000000000000000000000020000000000000000000000000000000000000000000000000000000000000000000",
      "type": "0x2",
      "transactionHash": "0xbbad209ea28da678431995a891b151b64c264e2f24691d3756d57ae129f500e2",
      "transactionIndex": "0xc",
      "blockHash": "0xa7fefc5dcf144011d09adaba057caa7c3485b97fd5b21fc2bf2330655988fc66",
      "blockNumber": "0xfe9c64",
      "gasUsed": "0xc8d9",
      "effectiveGasPrice": "0xc322e9e",
      "from": "0x509536fb08b977af9ff7726692cc449885f7f93b",
      "to": "0xaf6264b2cc418d17f1067ac8ac8687aae979d5e5",
      "contractAddress": null,
      "l1BaseFeeScalar": "0x44d",
      "l1BlobBaseFee": "0x1",
      "l1BlobBaseFeeScalar": "0xa118b",
      "l1Fee": "0x17b41c36c",
      "l1GasPrice": "0xd74a8899",
      "l1GasUsed": "0x640"
    }
  ],
  "libraries": [],
  "pending": [],
  "returns": {},
  "timestamp": 1729140648,
  "chain": 84532,
  "commit": "891f26c"
}