{
  "transactions": [
    {
      "hash": "0x1e19e130c0b29722e92657cbfbd6c7f8781a0431a88efd35ef723fbb1fb60856",
      "transactionType": "CALL",
      "contractName": "USDC",
      "contractAddress": "0xaf6264b2cc418d17f1067ac8ac8687aae979d5e5",
      "function": "mintTo(address,uint256)",
      "arguments": [
        "0xb13c76987B43674d3905eF1c1EdEBcA5CC18A6b4",
        "899000000000000000000"
      ],
      "transaction": {
        "from": "0x509536fb08b977af9ff7726692cc449885f7f93b",
        "to": "0xaf6264b2cc418d17f1067ac8ac8687aae979d5e5",
        "gas": "0x125bd",
        "value": "0x0",
        "input": "0x449a52f8000000000000000000000000b13c76987b43674d3905ef1c1edebca5cc18a6b4000000000000000000000000000000000000000000000030bc2198e4d42c0000",
        "nonce": "0x3a",
        "chainId": "0x14a34"
      },
      "additionalContracts": [],
      "isFixedGasLimit": false
    }
  ],
  "receipts": [
    {
      "status": "0x1",
      "cumulativeGasUsed": "0x5686c6",
      "logs": [
        {
          "address": "0xaf6264b2cc418d17f1067ac8ac8687aae979d5e5",
          "topics": [
            "0xddf252ad1be2c89b69c2b068fc378daa952ba7f163c4a11628f55a4df523b3ef",
            "0x0000000000000000000000000000000000000000000000000000000000000000",
            "0x000000000000000000000000b13c76987b43674d3905ef1c1edebca5cc18a6b4"
          ],
          "data": "0x000000000000000000000000000000000000000000000030bc2198e4d42c0000",
          "blockHash": "0x18fcf40d346d1f5243855b337a5b9683824bcb70a97c185ce98338c071caad43",
          "blockNumber": "0x1002ddf",
          "transactionHash": "0x1e19e130c0b29722e92657cbfbd6c7f8781a0431a88efd35ef723fbb1fb60856",
          "transactionIndex": "0x17",
          "logIndex": "0x46",
          "removed": false
        }
      ],
      "logsBloom": "0x00000000000000000000000000000000000000000000000000000000000000000000000000000000000000000000000000000000000000000000000000000000000000000000000000000008000000000000000000000000000002000000000000000000020004000000000000000810000000000000000000000010000000000000000000000000000000000000000000000000000020000000000000000000000000000000000000000000000000000000000000000400000000000000000000000002000000000000000000000000000000000000000000000000000020000000000000000000000000000080000000000000000000000000000000000000",
      "type": "0x2",
      "transactionHash": "0x1e19e130c0b29722e92657cbfbd6c7f8781a0431a88efd35ef723fbb1fb60856",
      "transactionIndex": "0x17",
      "blockHash": "0x18fcf40d346d1f5243855b337a5b9683824bcb70a97c185ce98338c071caad43",
      "blockNumber": "0x1002ddf",
      "gasUsed": "0xc8d9",
      "effectiveGasPrice": "0x34742c8",
      "from": "0x509536fb08b977af9ff7726692cc449885f7f93b",
      "to": "0xaf6264b2cc418d17f1067ac8ac8687aae979d5e5",
      "contractAddress": null,
      "l1BaseFeeScalar": "0x44d",
      "l1BlobBaseFee": "0x1",
      "l1BlobBaseFeeScalar": "0xa118b",
      "l1Fee": "0x4b5ca6da2",
      "l1GasPrice": "0x2ac7c71b5",
      "l1GasUsed": "0x640"
    }
  ],
  "libraries": [],
  "pending": [],
  "returns": {},
  "timestamp": 1729346207,
  "chain": 84532,
  "commit": "902afbe"
}