{
  "transactions": [
    {
      "hash": "0x78e6a570aec8e80cd5e07254e2d74aeeecb2e3c99d6fa02dab86952096bee3a1",
      "transactionType": "CALL",
      "contractName": "USDC",
      "contractAddress": "0xaf6264b2cc418d17f1067ac8ac8687aae979d5e5",
      "function": "mintTo(address,uint256)",
      "arguments": [
        "0x4cF351F2667fdea44944C90802CbE25F89752Fec",
        "2600000000000000000000"
      ],
      "transaction": {
        "from": "0x509536fb08b977af9ff7726692cc449885f7f93b",
        "to": "0xaf6264b2cc418d17f1067ac8ac8687aae979d5e5",
        "gas": "0x125bd",
        "value": "0x0",
        "input": "0x449a52f80000000000000000000000004cf351f2667fdea44944c90802cbe25f89752fec00000000000000000000000000000000000000000000008cf23f909c0fa00000",
        "nonce": "0x32",
        "chainId": "0x14a34"
      },
      "additionalContracts": [],
      "isFixedGasLimit": false
    }
  ],
  "receipts": [
    {
      "status": "0x1",
      "cumulativeGasUsed": "0x6cbdc4",
      "logs": [
        {
          "address": "0xaf6264b2cc418d17f1067ac8ac8687aae979d5e5",
          "topics": [
            "0xddf252ad1be2c89b69c2b068fc378daa952ba7f163c4a11628f55a4df523b3ef",
            "0x0000000000000000000000000000000000000000000000000000000000000000",
            "0x0000000000000000000000004cf351f2667fdea44944c90802cbe25f89752fec"
          ],
          "data": "0x00000000000000000000000000000000000000000000008cf23f909c0fa00000",
          "blockHash": "0x1571d43d47ad46cc8c4b4ed3db25dc81ac77951b223882a8c4cbfa7dfe7c862e",
          "blockNumber": "0xff133f",
          "transactionHash": "0x78e6a570aec8e80cd5e07254e2d74aeeecb2e3c99d6fa02dab86952096bee3a1",
          "transactionIndex": "0x11",
          "logIndex": "0x42",
          "removed": false
        }
      ],
      "logsBloom": "0x00000000000000000000000000000000000000000000000000000000000000000000000000000000000000000000000000000000000000000000000000000000000000000000000000000008000000000000000000000000000002000000000000000000020000000000000000000810000000000000000000000010000000000000000000000000000000000000000000000000000020000000000000000000000000000000000000000000000000000000000000000000000000000000000000000002200000000000000000000000000000000000000000000000000020000000000000000000009000000000000000000000000000000000000000000000",
      "type": "0x2",
      "transactionHash": "0x78e6a570aec8e80cd5e07254e2d74aeeecb2e3c99d6fa02dab86952096bee3a1",
      "transactionIndex": "0x11",
      "blockHash": "0x1571d43d47ad46cc8c4b4ed3db25dc81ac77951b223882a8c4cbfa7dfe7c862e",
      "blockNumber": "0xff133f",
      "gasUsed": "0xc8d9",
      "effectiveGasPrice": "0xb766a3",
      "from": "0x509536fb08b977af9ff7726692cc449885f7f93b",
      "to": "0xaf6264b2cc418d17f1067ac8ac8687aae979d5e5",
      "contractAddress": null,
      "l1BaseFeeScalar": "0x44d",
      "l1BlobBaseFee": "0x1",
      "l1BlobBaseFeeScalar": "0xa118b",
      "l1Fee": "0x1de65b24",
      "l1GasPrice": "0x10f91d81",
      "l1GasUsed": "0x640"
    }
  ],
  "libraries": [],
  "pending": [],
  "returns": {},
  "timestamp": 1729201503,
  "chain": 84532,
  "commit": "891f26c"
}