{
  "transactions": [
    {
      "hash": "0x2fad7961b09ae5339ac7cdf2c416053649229154f3c66c6253486f9a1a737952",
      "transactionType": "CALL",
      "contractName": "USDC",
      "contractAddress": "0xaf6264b2cc418d17f1067ac8ac8687aae979d5e5",
      "function": "mintTo(address,uint256)",
      "arguments": [
        "0x509536FB08B977aF9Ff7726692Cc449885F7F93b",
        "100000000000000000000000"
      ],
      "transaction": {
        "from": "0x509536fb08b977af9ff7726692cc449885f7f93b",
        "to": "0xaf6264b2cc418d17f1067ac8ac8687aae979d5e5",
        "gas": "0xc41e",
        "value": "0x0",
        "input": "0x449a52f8000000000000000000000000509536fb08b977af9ff7726692cc449885f7f93b00000000000000000000000000000000000000000000152d02c7e14af6800000",
        "nonce": "0x26",
        "chainId": "0x14a34"
      },
      "additionalContracts": [],
      "isFixedGasLimit": false
    }
  ],
  "receipts": [
    {
      "status": "0x1",
      "cumulativeGasUsed": "0x31520",
      "logs": [
        {
          "address": "0xaf6264b2cc418d17f1067ac8ac8687aae979d5e5",
          "topics": [
            "0xddf252ad1be2c89b69c2b068fc378daa952ba7f163c4a11628f55a4df523b3ef",
            "0x0000000000000000000000000000000000000000000000000000000000000000",
            "0x000000000000000000000000509536fb08b977af9ff7726692cc449885f7f93b"
          ],
          "data": "0x00000000000000000000000000000000000000000000152d02c7e14af6800000",
          "blockHash": "0xd1a0134d68a74475d509c771177ba173f206227d20ae29b627acd1fa3446f18f",
          "blockNumber": "0xfe7e21",
          "transactionHash": "0x2fad7961b09ae5339ac7cdf2c416053649229154f3c66c6253486f9a1a737952",
          "transactionIndex": "0x2",
          "logIndex": "0x3",
          "removed": false
        }
      ],
      "logsBloom": "0x00000000000000000000000000000000000000000000000000000000000000000000000000000000000000000000000000000000000000000000000000000000000000000000000000000008000008000000000000000000000002000000000000000000020000000000000000000811000000000000000000000010000000000000000000000000000000000000000000000000000020000000000000000000000001000000000000000000000000000000000000000000000000000000000000000002000000000000000000000000000000000000000000000000000020000000000000000000000000000000000000000000000000000000000000000000",
      "type": "0x2",
      "transactionHash": "0x2fad7961b09ae5339ac7cdf2c416053649229154f3c66c6253486f9a1a737952",
      "transactionIndex": "0x2",
      "blockHash": "0xd1a0134d68a74475d509c771177ba173f206227d20ae29b627acd1fa3446f18f",
      "blockNumber": "0xfe7e21",
      "gasUsed": "0x8619",
      "effectiveGasPrice": "0x2dc1b242",
      "from": "0x509536fb08b977af9ff7726692cc449885f7f93b",
      "to": "0xaf6264b2cc418d17f1067ac8ac8687aae979d5e5",
      "contractAddress": null,
      "l1BaseFeeScalar": "0x44d",
      "l1BlobBaseFee": "0x3",
      "l1BlobBaseFeeScalar": "0xa118b",
      "l1Fee": "0x1967e63dd",
      "l1GasPrice": "0xe6c0a765",
      "l1GasUsed": "0x640"
    }
  ],
  "libraries": [],
  "pending": [],
  "returns": {},
  "timestamp": 1729125161,
  "chain": 84532,
  "commit": "891f26c"
}