{
  "transactions": [
    {
      "hash": "0x885a287ebd2cdfc6b4af632a9f3e19e42aafcdcde2f61541111fd54068f9f771",
      "transactionType": "CALL",
      "contractName": "USDC",
      "contractAddress": "0xaf6264b2cc418d17f1067ac8ac8687aae979d5e5",
      "function": "mintTo(address,uint256)",
      "arguments": [
        "0xa75aC8aeE6654E32d9C61FFD629a97b46E2Ed442",
        "100000000000000000000000"
      ],
      "transaction": {
        "from": "0x509536fb08b977af9ff7726692cc449885f7f93b",
        "to": "0xaf6264b2cc418d17f1067ac8ac8687aae979d5e5",
        "gas": "0x1157b",
        "value": "0x0",
        "input": "0x449a52f8000000000000000000000000a75ac8aee6654e32d9c61ffd629a97b46e2ed44200000000000000000000000000000000000000000000152d02c7e14af6800000",
        "nonce": "0x27",
        "chainId": "0x14a34"
      },
      "additionalContracts": [],
      "isFixedGasLimit": false
    }
  ],
  "receipts": [
    {
      "status": "0x1",
      "cumulativeGasUsed": "0x821091",
      "logs": [
        {
          "address": "0xaf6264b2cc418d17f1067ac8ac8687aae979d5e5",
          "topics": [
            "0xddf252ad1be2c89b69c2b068fc378daa952ba7f163c4a11628f55a4df523b3ef",
            "0x0000000000000000000000000000000000000000000000000000000000000000",
            "0x000000000000000000000000a75ac8aee6654e32d9c61ffd629a97b46e2ed442"
          ],
          "data": "0x00000000000000000000000000000000000000000000152d02c7e14af6800000",
          "blockHash": "0x7497e20b1cc2d8e07503df445cc3833cdece88cbf6e845422db719cafcc3b459",
          "blockNumber": "0xfe7f5d",
          "transactionHash": "0x885a287ebd2cdfc6b4af632a9f3e19e42aafcdcde2f61541111fd54068f9f771",
          "transactionIndex": "0x1c",
          "logIndex": "0x74",
          "removed": false
        }
      ],
      "logsBloom": "0x00000000000000000000000000000000000000000000000000000000000000000000000000000000000000000000000000000000000000000000000000000000000000000000000000000008000000000000000000000000000002000000000000000000020000000000000000000810000000000000000000000010000000000000000000000000000000000000000000000000000020000000000000000000000000000000000000000040000000000020000000000000000000000000000000000002000000000000000000000000000000000000000000000000000020000000000000000000008000000000000000000000000000000000000000000000",
      "type": "0x2",
      "transactionHash": "0x885a287ebd2cdfc6b4af632a9f3e19e42aafcdcde2f61541111fd54068f9f771",
      "transactionIndex": "0x1c",
      "blockHash": "0x7497e20b1cc2d8e07503df445cc3833cdece88cbf6e845422db719cafcc3b459",
      "blockNumber": "0xfe7f5d",
      "gasUsed": "0xc8e5",
      "effectiveGasPrice": "0x2d9f7149",
      "from": "0x509536fb08b977af9ff7726692cc449885f7f93b",
      "to": "0xaf6264b2cc418d17f1067ac8ac8687aae979d5e5",
      "contractAddress": null,
      "l1BaseFeeScalar": "0x44d",
      "l1BlobBaseFee": "0xf",
      "l1BlobBaseFeeScalar": "0xa118b",
      "l1Fee": "0x1f22cb777",
      "l1GasPrice": "0x11acbf2a0",
      "l1GasUsed": "0x640"
    }
  ],
  "libraries": [],
  "pending": [],
  "returns": {},
  "timestamp": 1729125787,
  "chain": 84532,
  "commit": "891f26c"
}