{
  "transactions": [
    {
      "hash": "0xbba22a226179f5e0557c76787ef8bfe2e2a23d083fc8ff2160b4a36ece78f21a",
      "transactionType": "CALL",
      "contractName": null,
      "contractAddress": "0xaf6264b2cc418d17f1067ac8ac8687aae979d5e5",
      "function": "mintTo(address,uint256)",
      "arguments": [
        "0x509536FB08B977aF9Ff7726692Cc449885F7F93b",
        "100000000000000000000000"
      ],
      "transaction": {
        "from": "0x509536fb08b977af9ff7726692cc449885f7f93b",
        "to": "0xaf6264b2cc418d17f1067ac8ac8687aae979d5e5",
        "gas": "0x1877f",
        "value": "0x0",
        "input": "0x449a52f8000000000000000000000000509536fb08b977af9ff7726692cc449885f7f93b00000000000000000000000000000000000000000000152d02c7e14af6800000",
        "nonce": "0xd",
        "chainId": "0x14a34"
      },
      "additionalContracts": [],
      "isFixedGasLimit": false
    }
  ],
  "receipts": [
    {
      "status": "0x1",
      "cumulativeGasUsed": "0xec1a5",
      "logs": [
        {
          "address": "0xaf6264b2cc418d17f1067ac8ac8687aae979d5e5",
          "topics": [
            "0xddf252ad1be2c89b69c2b068fc378daa952ba7f163c4a11628f55a4df523b3ef",
            "0x0000000000000000000000000000000000000000000000000000000000000000",
            "0x000000000000000000000000509536fb08b977af9ff7726692cc449885f7f93b"
          ],
          "data": "0x00000000000000000000000000000000000000000000152d02c7e14af6800000",
          "blockHash": "0x8ff062e8e213418366d0eee6840fd54c9fdeda1b9d52986a2f8c31273051f149",
          "blockNumber": "0xf9e169",
          "transactionHash": "0xbba22a226179f5e0557c76787ef8bfe2e2a23d083fc8ff2160b4a36ece78f21a",
          "transactionIndex": "0x8",
          "logIndex": "0x8",
          "removed": false
        }
      ],
      "logsBloom": "0x00000000000000000000000000000000000000000000000000000000000000000000000000000000000000000000000000000000000000000000000000000000000000000000000000000008000008000000000000000000000002000000000000000000020000000000000000000811000000000000000000000010000000000000000000000000000000000000000000000000000020000000000000000000000001000000000000000000000000000000000000000000000000000000000000000002000000000000000000000000000000000000000000000000000020000000000000000000000000000000000000000000000000000000000000000000",
      "type": "0x2",
      "transactionHash": "0xbba22a226179f5e0557c76787ef8bfe2e2a23d083fc8ff2160b4a36ece78f21a",
      "transactionIndex": "0x8",
      "blockHash": "0x8ff062e8e213418366d0eee6840fd54c9fdeda1b9d52986a2f8c31273051f149",
      "blockNumber": "0xf9e169",
      "gasUsed": "0x10bb1",
      "effectiveGasPrice": "0xc9e3a886",
      "from": "0x509536fb08b977af9ff7726692cc449885f7f93b",
      "to": "0xaf6264b2cc418d17f1067ac8ac8687aae979d5e5",
      "contractAddress": null,
      "l1BaseFeeScalar": "0x44d",
      "l1BlobBaseFee": "0x2",
      "l1BlobBaseFeeScalar": "0xa118b",
      "l1Fee": "0x1ab",
      "l1GasPrice": "0xa8",
      "l1GasUsed": "0x640"
    }
  ],
  "libraries": [],
  "pending": [],
  "returns": {},
  "timestamp": 1728520626,
  "chain": 84532,
  "commit": "db7baeb"
}